{
  "transactions": [
    {
      "hash": "0xab8ee20131f912b0114e5b9a02adfcf866fb837bc38a393387c8e64b12798c28",
      "transactionType": "CALL",
      "contractName": null,
      "contractAddress": "0x00571860bb39c639e8aad55b4e95d36be228ae11",
      "function": "approve(address,uint256)",
      "arguments": [
        "0xCD0b7d5ECd5279D946F99d98633E1942893C3573",
        "115792089237316195423570985008687907853269984665640564039457584007913129639935"
      ],
      "transaction": {
        "from": "0x9dba18e9b96b905919cc828c399d313efd55d800",
        "to": "0x00571860bb39c639e8aad55b4e95d36be228ae11",
        "gas": "0x8c96",
        "value": "0x0",
        "input": "0x095ea7b3000000000000000000000000cd0b7d5ecd5279d946f99d98633e1942893c3573ffffffffffffffffffffffffffffffffffffffffffffffffffffffffffffffff",
        "nonce": "0xd1",
        "chainId": "0x66eee"
      },
      "additionalContracts": [],
      "isFixedGasLimit": false
    },
    {
      "hash": "0x9117d36c652619f1b9f22494a0cda7f41cde03c466ef109d46cf530b9cb53f49",
      "transactionType": "CALL",
      "contractName": null,
      "contractAddress": "0x6d521a93a3b1fef995026ebd537405ebd4a1e481",
      "function": "approve(address,uint256)",
      "arguments": [
        "0xCD0b7d5ECd5279D946F99d98633E1942893C3573",
        "115792089237316195423570985008687907853269984665640564039457584007913129639935"
      ],
      "transaction": {
        "from": "0x9dba18e9b96b905919cc828c399d313efd55d800",
        "to": "0x6d521a93a3b1fef995026ebd537405ebd4a1e481",
        "gas": "0x8c99",
        "value": "0x0",
        "input": "0x095ea7b3000000000000000000000000cd0b7d5ecd5279d946f99d98633e1942893c3573ffffffffffffffffffffffffffffffffffffffffffffffffffffffffffffffff",
        "nonce": "0xd2",
        "chainId": "0x66eee"
      },
      "additionalContracts": [],
      "isFixedGasLimit": false
    },
    {
      "hash": "0x8f27ec20af34f601404970b73fc5096fa38a43cba6bc4be0869eb5b2bc745234",
      "transactionType": "CALL",
      "contractName": null,
      "contractAddress": "0xcd0b7d5ecd5279d946f99d98633e1942893c3573",
      "function": "swapExactTokensForTokens(uint256,uint256,bool,(address,address,uint24,int24,address),bytes,address,uint256)",
      "arguments": [
        "10000000000000000",
        "0",
        "false",
        "(0x00571860bB39C639e8aAD55B4E95D36BE228ae11, 0x6d521a93A3B1fEF995026eBD537405EBD4A1E481, 5000, 100, 0x04bc938847fd15E1082bC7F87a23Fc3f32d0c0C0)",
        "0x00000000000000000000000000000000000000000000000000000000000000010000000000000000000000009dba18e9b96b905919cc828c399d313efd55d800",
        "0x9dBa18e9b96b905919cC828C399d313EfD55D800",
        "1754256703"
      ],
      "transaction": {
        "from": "0x9dba18e9b96b905919cc828c399d313efd55d800",
        "to": "0xcd0b7d5ecd5279d946f99d98633e1942893c3573",
        "gas": "0x2771d",
        "value": "0x0",
        "input": "0xb1a0d571000000000000000000000000000000000000000000000000002386f26fc100000000000000000000000000000000000000000000000000000000000000000000000000000000000000000000000000000000000000000000000000000000000000000000000000000000000000571860bb39c639e8aad55b4e95d36be228ae110000000000000000000000006d521a93a3b1fef995026ebd537405ebd4a1e4810000000000000000000000000000000000000000000000000000000000001388000000000000000000000000000000000000000000000000000000000000006400000000000000000000000004bc938847fd15e1082bc7f87a23fc3f32d0c0c000000000000000000000000000000000000000000000000000000000000001600000000000000000000000009dba18e9b96b905919cc828c399d313efd55d80000000000000000000000000000000000000000000000000000000000688fd53f000000000000000000000000000000000000000000000000000000000000004000000000000000000000000000000000000000000000000000000000000000010000000000000000000000009dba18e9b96b905919cc828c399d313efd55d800",
        "nonce": "0xd3",
        "chainId": "0x66eee"
      },
      "additionalContracts": [],
      "isFixedGasLimit": false
    }
  ],
  "receipts": [
    {
      "status": "0x1",
      "cumulativeGasUsed": "0x6acc",
      "logs": [
        {
          "address": "0x00571860bb39c639e8aad55b4e95d36be228ae11",
          "topics": [
            "0x8c5be1e5ebec7d5bd14f71427d1e84f3dd0314c0f7b2291e5b200ac8c7c3b925",
            "0x0000000000000000000000009dba18e9b96b905919cc828c399d313efd55d800",
            "0x000000000000000000000000cd0b7d5ecd5279d946f99d98633e1942893c3573"
          ],
          "data": "0xffffffffffffffffffffffffffffffffffffffffffffffffffffffffffffffff",
          "blockHash": "0x60828851394e17b1ddf488074fc6c1979018c3bdb0243732ab26b8608efb6218",
          "blockNumber": "0xabfc8c8",
          "transactionHash": "0xab8ee20131f912b0114e5b9a02adfcf866fb837bc38a393387c8e64b12798c28",
          "transactionIndex": "0x1",
          "logIndex": "0x0",
          "removed": false
        }
      ],
      "logsBloom": "0x00000000000000000000000000000000000000000000000000000000000000000000000000000000000000000000010000000000000000000000000000200800000000000000000000000000000000000000000000000000020000000000000000000000000004000000000000000000000000000000000000000000000000000002000000000000000000000000000000000000000000000000000000000000020000000000000000000000000000000400000000000000001000000000000000000000000000000000000000000000000000000000000000000000008000000010000000000000000000000080000000000000000000000000000000000000",
      "type": "0x2",
      "transactionHash": "0xab8ee20131f912b0114e5b9a02adfcf866fb837bc38a393387c8e64b12798c28",
      "transactionIndex": "0x1",
      "blockHash": "0x60828851394e17b1ddf488074fc6c1979018c3bdb0243732ab26b8608efb6218",
      "blockNumber": "0xabfc8c8",
      "gasUsed": "0x6acc",
      "effectiveGasPrice": "0x5f5e100",
      "from": "0x9dba18e9b96b905919cc828c399d313efd55d800",
      "to": "0x00571860bb39c639e8aad55b4e95d36be228ae11",
      "contractAddress": null,
      "gasUsedForL1": "0x0",
      "l1BlockNumber": "0x87e5ad",
      "timeboosted": false
    },
    {
      "status": "0x1",
      "cumulativeGasUsed": "0x6ace",
      "logs": [
        {
          "address": "0x6d521a93a3b1fef995026ebd537405ebd4a1e481",
          "topics": [
            "0x8c5be1e5ebec7d5bd14f71427d1e84f3dd0314c0f7b2291e5b200ac8c7c3b925",
            "0x0000000000000000000000009dba18e9b96b905919cc828c399d313efd55d800",
            "0x000000000000000000000000cd0b7d5ecd5279d946f99d98633e1942893c3573"
          ],
          "data": "0xffffffffffffffffffffffffffffffffffffffffffffffffffffffffffffffff",
          "blockHash": "0xfbaf309f9e997abdb22ae4e4aeb850367191643fb2638f9e7e373ee1e168ccfb",
          "blockNumber": "0xabfc8d2",
          "transactionHash": "0x9117d36c652619f1b9f22494a0cda7f41cde03c466ef109d46cf530b9cb53f49",
          "transactionIndex": "0x1",
          "logIndex": "0x0",
          "removed": false
        }
      ],
      "logsBloom": "0x00000000000000000000000000000000000000000000000000000000000000000000000000000000000000000000010000000000000000000000000000200800000000000000000000000000000000000000000000000000000000000000000000000000000000000000000000000000000000000000000000000000000000000000000000000000000000000000000000000000000408000000000000000000020000000000000000000000000000000400000020000000001000000000000000000000000000000000000000000000000000000000000000000000008000000010000000000000000000000080000000000000000000000000000000000000",
      "type": "0x2",
      "transactionHash": "0x9117d36c652619f1b9f22494a0cda7f41cde03c466ef109d46cf530b9cb53f49",
      "transactionIndex": "0x1",
      "blockHash": "0xfbaf309f9e997abdb22ae4e4aeb850367191643fb2638f9e7e373ee1e168ccfb",
      "blockNumber": "0xabfc8d2",
      "gasUsed": "0x6ace",
      "effectiveGasPrice": "0x5f5e100",
      "from": "0x9dba18e9b96b905919cc828c399d313efd55d800",
      "to": "0x6d521a93a3b1fef995026ebd537405ebd4a1e481",
      "contractAddress": null,
      "gasUsedForL1": "0x0",
      "l1BlockNumber": "0x87e5ad",
      "timeboosted": false
    },
    {
      "status": "0x1",
      "cumulativeGasUsed": "0x106e6b",
      "logs": [
        {
          "address": "0xfb3e0c6f74eb1a21cc1da29aec80d2dfe6c9a317",
          "topics": [
            "0x40e9cecb9f5f1f1c5b9c97dec2917b7ee92e57ba5563708daca94dd84ad7112f",
            "0x2ffde48cf6c269ca8b78a17350999892a94c3418f3c539b564a8f31bcab7da07",
            "0x000000000000000000000000cd0b7d5ecd5279d946f99d98633e1942893c3573"
          ],
          "data": "0x0000000000000000000000000000000000000000000000000020735cc77995bfffffffffffffffffffffffffffffffffffffffffffffffffffdc790d903f000000000000000000000000000000000000000000010c6fb95741b5a28875ca2f5a0000000000000000000000000000000000000000000000000e364b50c0bf8e6300000000000000000000000000000000000000000000000000000000000003b40000000000000000000000000000000000000000000000000000000000001388",
          "blockHash": "0x48ab150505f6111a00e1518501be1692dfb0404cae619948ddd1c511d2d3e7c2",
          "blockNumber": "0xabfc8e2",
          "transactionHash": "0x8f27ec20af34f601404970b73fc5096fa38a43cba6bc4be0869eb5b2bc745234",
          "transactionIndex": "0x5",
          "logIndex": "0xf",
          "removed": false
        },
        {
          "address": "0x6d521a93a3b1fef995026ebd537405ebd4a1e481",
          "topics": [
            "0xddf252ad1be2c89b69c2b068fc378daa952ba7f163c4a11628f55a4df523b3ef",
            "0x0000000000000000000000009dba18e9b96b905919cc828c399d313efd55d800",
            "0x000000000000000000000000fb3e0c6f74eb1a21cc1da29aec80d2dfe6c9a317"
          ],
          "data": "0x000000000000000000000000000000000000000000000000002386f26fc10000",
          "blockHash": "0x48ab150505f6111a00e1518501be1692dfb0404cae619948ddd1c511d2d3e7c2",
          "blockNumber": "0xabfc8e2",
          "transactionHash": "0x8f27ec20af34f601404970b73fc5096fa38a43cba6bc4be0869eb5b2bc745234",
          "transactionIndex": "0x5",
          "logIndex": "0x10",
          "removed": false
        },
        {
          "address": "0x00571860bb39c639e8aad55b4e95d36be228ae11",
          "topics": [
            "0xddf252ad1be2c89b69c2b068fc378daa952ba7f163c4a11628f55a4df523b3ef",
            "0x000000000000000000000000fb3e0c6f74eb1a21cc1da29aec80d2dfe6c9a317",
            "0x0000000000000000000000009dba18e9b96b905919cc828c399d313efd55d800"
          ],
          "data": "0x0000000000000000000000000000000000000000000000000020735cc77995bf",
          "blockHash": "0x48ab150505f6111a00e1518501be1692dfb0404cae619948ddd1c511d2d3e7c2",
          "blockNumber": "0xabfc8e2",
          "transactionHash": "0x8f27ec20af34f601404970b73fc5096fa38a43cba6bc4be0869eb5b2bc745234",
          "transactionIndex": "0x5",
          "logIndex": "0x11",
          "removed": false
        }
      ],
      "logsBloom": "0x00000040000000000000000000000008000000000020000000000000000000000000000000000000000000000000010000000000040000000000000000000840000000000000000000000008000000000000000000000020020000000000000000000000000404000000000000000000000000000000000000000010000000000002000000000000000000000000000020000000000408000000000000000000000000000000000000000000000000000400000020000000001000000000000000000002000000000000000000000000000000000000000000000000008000000000000002000000004000000080000000000000000080000000000000000004",
      "type": "0x2",
      "transactionHash": "0x8f27ec20af34f601404970b73fc5096fa38a43cba6bc4be0869eb5b2bc745234",
      "transactionIndex": "0x5",
      "blockHash": "0x48ab150505f6111a00e1518501be1692dfb0404cae619948ddd1c511d2d3e7c2",
      "blockNumber": "0xabfc8e2",
      "gasUsed": "0x1dd20",
      "effectiveGasPrice": "0x5f5e100",
      "from": "0x9dba18e9b96b905919cc828c399d313efd55d800",
      "to": "0xcd0b7d5ecd5279d946f99d98633e1942893c3573",
      "contractAddress": null,
      "gasUsedForL1": "0x1",
      "l1BlockNumber": "0x87e5ae",
      "timeboosted": false
    }
  ],
  "libraries": [],
  "pending": [],
  "returns": {},
  "timestamp": 1754253131,
  "chain": 421614,
  "commit": "9f7af64"
}