{
  "transactions": [
    {
      "hash": "0x15dd7d869b0292505be467b2e9506e7dbe4eb27aa6928a00182e0a0458601636",
      "transactionType": "CALL",
      "contractName": null,
      "contractAddress": "0x00571860bb39c639e8aad55b4e95d36be228ae11",
      "function": "approve(address,uint256)",
      "arguments": [
        "0xCD0b7d5ECd5279D946F99d98633E1942893C3573",
        "115792089237316195423570985008687907853269984665640564039457584007913129639935"
      ],
      "transaction": {
        "from": "0x9dba18e9b96b905919cc828c399d313efd55d800",
        "to": "0x00571860bb39c639e8aad55b4e95d36be228ae11",
        "gas": "0x8c99",
        "value": "0x0",
        "input": "0x095ea7b3000000000000000000000000cd0b7d5ecd5279d946f99d98633e1942893c3573ffffffffffffffffffffffffffffffffffffffffffffffffffffffffffffffff",
        "nonce": "0xee",
        "chainId": "0x66eee"
      },
      "additionalContracts": [],
      "isFixedGasLimit": false
    },
    {
      "hash": "0x107d90b5abf01dd6148a3c554b1bb7bd950e046af50fcf629665a32ff1412826",
      "transactionType": "CALL",
      "contractName": null,
      "contractAddress": "0x6d521a93a3b1fef995026ebd537405ebd4a1e481",
      "function": "approve(address,uint256)",
      "arguments": [
        "0xCD0b7d5ECd5279D946F99d98633E1942893C3573",
        "115792089237316195423570985008687907853269984665640564039457584007913129639935"
      ],
      "transaction": {
        "from": "0x9dba18e9b96b905919cc828c399d313efd55d800",
        "to": "0x6d521a93a3b1fef995026ebd537405ebd4a1e481",
        "gas": "0x8c9b",
        "value": "0x0",
        "input": "0x095ea7b3000000000000000000000000cd0b7d5ecd5279d946f99d98633e1942893c3573ffffffffffffffffffffffffffffffffffffffffffffffffffffffffffffffff",
        "nonce": "0xef",
        "chainId": "0x66eee"
      },
      "additionalContracts": [],
      "isFixedGasLimit": false
    },
    {
      "hash": "0xf33039f1be487b55eec89eb9484ad0ed77ddee1e5bdec260b950cc06b3057d2c",
      "transactionType": "CALL",
      "contractName": null,
      "contractAddress": "0xcd0b7d5ecd5279d946f99d98633e1942893c3573",
      "function": "swapExactTokensForTokens(uint256,uint256,bool,(address,address,uint24,int24,address),bytes,address,uint256)",
      "arguments": [
        "10000000000000000",
        "0",
        "false",
        "(0x00571860bB39C639e8aAD55B4E95D36BE228ae11, 0x6d521a93A3B1fEF995026eBD537405EBD4A1E481, 5000, 100, 0x75c4cD5D01368F89E4957e67867275DDEBE740C0)",
        "0x00000000000000000000000000000000000000000000000000000000000000000000000000000000000000009dba18e9b96b905919cc828c399d313efd55d800",
        "0x9dBa18e9b96b905919cC828C399d313EfD55D800",
        "1754339283"
      ],
      "transaction": {
        "from": "0x9dba18e9b96b905919cc828c399d313efd55d800",
        "to": "0xcd0b7d5ecd5279d946f99d98633e1942893c3573",
        "gas": "0x2b352",
        "value": "0x0",
        "input": "0xb1a0d571000000000000000000000000000000000000000000000000002386f26fc100000000000000000000000000000000000000000000000000000000000000000000000000000000000000000000000000000000000000000000000000000000000000000000000000000000000000571860bb39c639e8aad55b4e95d36be228ae110000000000000000000000006d521a93a3b1fef995026ebd537405ebd4a1e4810000000000000000000000000000000000000000000000000000000000001388000000000000000000000000000000000000000000000000000000000000006400000000000000000000000075c4cd5d01368f89e4957e67867275ddebe740c000000000000000000000000000000000000000000000000000000000000001600000000000000000000000009dba18e9b96b905919cc828c399d313efd55d80000000000000000000000000000000000000000000000000000000000689117d3000000000000000000000000000000000000000000000000000000000000004000000000000000000000000000000000000000000000000000000000000000000000000000000000000000009dba18e9b96b905919cc828c399d313efd55d800",
        "nonce": "0xf0",
        "chainId": "0x66eee"
      },
      "additionalContracts": [],
      "isFixedGasLimit": false
    }
  ],
  "receipts": [
    {
      "status": "0x1",
      "cumulativeGasUsed": "0x49de2",
      "logs": [
        {
          "address": "0x00571860bb39c639e8aad55b4e95d36be228ae11",
          "topics": [
            "0x8c5be1e5ebec7d5bd14f71427d1e84f3dd0314c0f7b2291e5b200ac8c7c3b925",
            "0x0000000000000000000000009dba18e9b96b905919cc828c399d313efd55d800",
            "0x000000000000000000000000cd0b7d5ecd5279d946f99d98633e1942893c3573"
          ],
          "data": "0xffffffffffffffffffffffffffffffffffffffffffffffffffffffffffffffff",
          "blockHash": "0x41133672e56ca4018dafd258f6878341a4fcf50cdad7b1fe91109d636cfd38ba",
          "blockNumber": "0xac4c35a",
          "transactionHash": "0x15dd7d869b0292505be467b2e9506e7dbe4eb27aa6928a00182e0a0458601636",
          "transactionIndex": "0x5",
          "logIndex": "0x5",
          "removed": false
        }
      ],
      "logsBloom": "0x00000000000000000000000000000000000000000000000000000000000000000000000000000000000000000000010000000000000000000000000000200800000000000000000000000000000000000000000000000000020000000000000000000000000004000000000000000000000000000000000000000000000000000002000000000000000000000000000000000000000000000000000000000000020000000000000000000000000000000400000000000000001000000000000000000000000000000000000000000000000000000000000000000000008000000010000000000000000000000080000000000000000000000000000000000000",
      "type": "0x2",
      "transactionHash": "0x15dd7d869b0292505be467b2e9506e7dbe4eb27aa6928a00182e0a0458601636",
      "transactionIndex": "0x5",
      "blockHash": "0x41133672e56ca4018dafd258f6878341a4fcf50cdad7b1fe91109d636cfd38ba",
      "blockNumber": "0xac4c35a",
      "gasUsed": "0x6acd",
      "effectiveGasPrice": "0x5f5e100",
      "from": "0x9dba18e9b96b905919cc828c399d313efd55d800",
      "to": "0x00571860bb39c639e8aad55b4e95d36be228ae11",
      "contractAddress": null,
      "gasUsedForL1": "0x1",
      "l1BlockNumber": "0x88006d",
      "timeboosted": false
    },
    {
      "status": "0x1",
      "cumulativeGasUsed": "0x625ba",
      "logs": [
        {
          "address": "0x6d521a93a3b1fef995026ebd537405ebd4a1e481",
          "topics": [
            "0x8c5be1e5ebec7d5bd14f71427d1e84f3dd0314c0f7b2291e5b200ac8c7c3b925",
            "0x0000000000000000000000009dba18e9b96b905919cc828c399d313efd55d800",
            "0x000000000000000000000000cd0b7d5ecd5279d946f99d98633e1942893c3573"
          ],
          "data": "0xffffffffffffffffffffffffffffffffffffffffffffffffffffffffffffffff",
          "blockHash": "0xcedb0c9a686e8c34d50e1c3ae1263f3346531ff70d3759c105e24225355a5419",
          "blockNumber": "0xac4c360",
          "transactionHash": "0x107d90b5abf01dd6148a3c554b1bb7bd950e046af50fcf629665a32ff1412826",
          "transactionIndex": "0x5",
          "logIndex": "0xc",
          "removed": false
        }
      ],
      "logsBloom": "0x00000000000000000000000000000000000000000000000000000000000000000000000000000000000000000000010000000000000000000000000000200800000000000000000000000000000000000000000000000000000000000000000000000000000000000000000000000000000000000000000000000000000000000000000000000000000000000000000000000000000408000000000000000000020000000000000000000000000000000400000020000000001000000000000000000000000000000000000000000000000000000000000000000000008000000010000000000000000000000080000000000000000000000000000000000000",
      "type": "0x2",
      "transactionHash": "0x107d90b5abf01dd6148a3c554b1bb7bd950e046af50fcf629665a32ff1412826",
      "transactionIndex": "0x5",
      "blockHash": "0xcedb0c9a686e8c34d50e1c3ae1263f3346531ff70d3759c105e24225355a5419",
      "blockNumber": "0xac4c360",
      "gasUsed": "0x6acf",
      "effectiveGasPrice": "0x5f5e100",
      "from": "0x9dba18e9b96b905919cc828c399d313efd55d800",
      "to": "0x6d521a93a3b1fef995026ebd537405ebd4a1e481",
      "contractAddress": null,
      "gasUsedForL1": "0x1",
      "l1BlockNumber": "0x88006d",
      "timeboosted": false
    },
    {
      "status": "0x1",
      "cumulativeGasUsed": "0x20b12",
      "logs": [
        {
          "address": "0xfb3e0c6f74eb1a21cc1da29aec80d2dfe6c9a317",
          "topics": [
            "0x40e9cecb9f5f1f1c5b9c97dec2917b7ee92e57ba5563708daca94dd84ad7112f",
            "0x6366fc581ba00f551a143c6f016c507311e08dd74a6a2c76f3f0e6a12469a8ff",
            "0x000000000000000000000000cd0b7d5ecd5279d946f99d98633e1942893c3573"
          ],
          "data": "0x00000000000000000000000000000000000000000000000000230264e1b7d647ffffffffffffffffffffffffffffffffffffffffffffffffffdc790d903f00000000000000000000000000000000000000000001027cbeab0d2453b4e45ba3120000000000000000000000000000000000000000000000000e364b50c0bf8e6300000000000000000000000000000000000000000000000000000000000000c10000000000000000000000000000000000000000000000000000000000001388",
          "blockHash": "0x20ac8f43b05a80eda85541b6fa238960fb5a0925dbd58a995748ef2439454da5",
          "blockNumber": "0xac4c368",
          "transactionHash": "0xf33039f1be487b55eec89eb9484ad0ed77ddee1e5bdec260b950cc06b3057d2c",
          "transactionIndex": "0x1",
          "logIndex": "0x0",
          "removed": false
        },
        {
          "address": "0x6d521a93a3b1fef995026ebd537405ebd4a1e481",
          "topics": [
            "0xddf252ad1be2c89b69c2b068fc378daa952ba7f163c4a11628f55a4df523b3ef",
            "0x0000000000000000000000009dba18e9b96b905919cc828c399d313efd55d800",
            "0x000000000000000000000000fb3e0c6f74eb1a21cc1da29aec80d2dfe6c9a317"
          ],
          "data": "0x000000000000000000000000000000000000000000000000002386f26fc10000",
          "blockHash": "0x20ac8f43b05a80eda85541b6fa238960fb5a0925dbd58a995748ef2439454da5",
          "blockNumber": "0xac4c368",
          "transactionHash": "0xf33039f1be487b55eec89eb9484ad0ed77ddee1e5bdec260b950cc06b3057d2c",
          "transactionIndex": "0x1",
          "logIndex": "0x1",
          "removed": false
        },
        {
          "address": "0x00571860bb39c639e8aad55b4e95d36be228ae11",
          "topics": [
            "0xddf252ad1be2c89b69c2b068fc378daa952ba7f163c4a11628f55a4df523b3ef",
            "0x000000000000000000000000fb3e0c6f74eb1a21cc1da29aec80d2dfe6c9a317",
            "0x0000000000000000000000009dba18e9b96b905919cc828c399d313efd55d800"
          ],
          "data": "0x00000000000000000000000000000000000000000000000000230264e1b7d647",
          "blockHash": "0x20ac8f43b05a80eda85541b6fa238960fb5a0925dbd58a995748ef2439454da5",
          "blockNumber": "0xac4c368",
          "transactionHash": "0xf33039f1be487b55eec89eb9484ad0ed77ddee1e5bdec260b950cc06b3057d2c",
          "transactionIndex": "0x1",
          "logIndex": "0x2",
          "removed": false
        }
      ],
      "logsBloom": "0x00000040000000000000000000000008000000000020002004000000000000000000000000000000000000000000010000000000040000000000000000000840000000000000000000000008000000000000000000000020020000000000000000000000000404000000000000000000000000000000000000000010000000000002000000000000000000000000000000000000020408000000000000000000000000000000000000000000000000000400000020000000001000000000000000000002000000000000000000000000000000000000000000000000008000000000000000000000004000000080000000000000000000000000000000000004",
      "type": "0x2",
      "transactionHash": "0xf33039f1be487b55eec89eb9484ad0ed77ddee1e5bdec260b950cc06b3057d2c",
      "transactionIndex": "0x1",
      "blockHash": "0x20ac8f43b05a80eda85541b6fa238960fb5a0925dbd58a995748ef2439454da5",
      "blockNumber": "0xac4c368",
      "gasUsed": "0x20b12",
      "effectiveGasPrice": "0x5f5e100",
      "from": "0x9dba18e9b96b905919cc828c399d313efd55d800",
      "to": "0xcd0b7d5ecd5279d946f99d98633e1942893c3573",
      "contractAddress": null,
      "gasUsedForL1": "0x3",
      "l1BlockNumber": "0x88006d",
      "timeboosted": false
    }
  ],
  "libraries": [],
  "pending": [],
  "returns": {},
  "timestamp": 1754335706,
  "chain": 421614,
  "commit": "9f7af64"
}