{
  "transactions": [
    {
      "hash": "0x37c182bf9206e5d82b7073f7e7953cdfcf8ecc1cf6194dcc69b529951f7fb5e3",
      "transactionType": "CALL",
      "contractName": null,
      "contractAddress": "0x00571860bb39c639e8aad55b4e95d36be228ae11",
      "function": "approve(address,uint256)",
      "arguments": [
        "0xCD0b7d5ECd5279D946F99d98633E1942893C3573",
        "115792089237316195423570985008687907853269984665640564039457584007913129639935"
      ],
      "transaction": {
        "from": "0x9dba18e9b96b905919cc828c399d313efd55d800",
        "to": "0x00571860bb39c639e8aad55b4e95d36be228ae11",
        "gas": "0x8c96",
        "value": "0x0",
        "input": "0x095ea7b3000000000000000000000000cd0b7d5ecd5279d946f99d98633e1942893c3573ffffffffffffffffffffffffffffffffffffffffffffffffffffffffffffffff",
        "nonce": "0xf2",
        "chainId": "0x66eee"
      },
      "additionalContracts": [],
      "isFixedGasLimit": false
    },
    {
      "hash": "0x95badf3a4f8d13998e429ecdb192f85ba66e4e151cadf17863091c4039c44017",
      "transactionType": "CALL",
      "contractName": null,
      "contractAddress": "0x6d521a93a3b1fef995026ebd537405ebd4a1e481",
      "function": "approve(address,uint256)",
      "arguments": [
        "0xCD0b7d5ECd5279D946F99d98633E1942893C3573",
        "115792089237316195423570985008687907853269984665640564039457584007913129639935"
      ],
      "transaction": {
        "from": "0x9dba18e9b96b905919cc828c399d313efd55d800",
        "to": "0x6d521a93a3b1fef995026ebd537405ebd4a1e481",
        "gas": "0x8c99",
        "value": "0x0",
        "input": "0x095ea7b3000000000000000000000000cd0b7d5ecd5279d946f99d98633e1942893c3573ffffffffffffffffffffffffffffffffffffffffffffffffffffffffffffffff",
        "nonce": "0xf3",
        "chainId": "0x66eee"
      },
      "additionalContracts": [],
      "isFixedGasLimit": false
    },
    {
      "hash": "0xe87e1462e6ca4d8d45e068612628a266351f01665497efb3597b1cf162398eca",
      "transactionType": "CALL",
      "contractName": null,
      "contractAddress": "0xcd0b7d5ecd5279d946f99d98633e1942893c3573",
      "function": "swapExactTokensForTokens(uint256,uint256,bool,(address,address,uint24,int24,address),bytes,address,uint256)",
      "arguments": [
        "10000000000000000",
        "0",
        "false",
        "(0x00571860bB39C639e8aAD55B4E95D36BE228ae11, 0x6d521a93A3B1fEF995026eBD537405EBD4A1E481, 5000, 100, 0x75c4cD5D01368F89E4957e67867275DDEBE740C0)",
        "0x00000000000000000000000000000000000000000000000000000000000000010000000000000000000000009dba18e9b96b905919cc828c399d313efd55d800",
        "0x9dBa18e9b96b905919cC828C399d313EfD55D800",
        "1754345859"
      ],
      "transaction": {
        "from": "0x9dba18e9b96b905919cc828c399d313efd55d800",
        "to": "0xcd0b7d5ecd5279d946f99d98633e1942893c3573",
        "gas": "0x65289",
        "value": "0x0",
        "input": "0xb1a0d571000000000000000000000000000000000000000000000000002386f26fc100000000000000000000000000000000000000000000000000000000000000000000000000000000000000000000000000000000000000000000000000000000000000000000000000000000000000571860bb39c639e8aad55b4e95d36be228ae110000000000000000000000006d521a93a3b1fef995026ebd537405ebd4a1e4810000000000000000000000000000000000000000000000000000000000001388000000000000000000000000000000000000000000000000000000000000006400000000000000000000000075c4cd5d01368f89e4957e67867275ddebe740c000000000000000000000000000000000000000000000000000000000000001600000000000000000000000009dba18e9b96b905919cc828c399d313efd55d8000000000000000000000000000000000000000000000000000000000068913183000000000000000000000000000000000000000000000000000000000000004000000000000000000000000000000000000000000000000000000000000000010000000000000000000000009dba18e9b96b905919cc828c399d313efd55d800",
        "nonce": "0xf4",
        "chainId": "0x66eee"
      },
      "additionalContracts": [],
      "isFixedGasLimit": false
    }
  ],
  "receipts": [
    {
      "status": "0x1",
      "cumulativeGasUsed": "0x8f1011",
      "logs": [
        {
          "address": "0x00571860bb39c639e8aad55b4e95d36be228ae11",
          "topics": [
            "0x8c5be1e5ebec7d5bd14f71427d1e84f3dd0314c0f7b2291e5b200ac8c7c3b925",
            "0x0000000000000000000000009dba18e9b96b905919cc828c399d313efd55d800",
            "0x000000000000000000000000cd0b7d5ecd5279d946f99d98633e1942893c3573"
          ],
          "data": "0xffffffffffffffffffffffffffffffffffffffffffffffffffffffffffffffff",
          "blockHash": "0x1a74dd4f6c4edba7ad5ddc9c3652ac7336e2d7930062a28a62e4d00aa741206e",
          "blockNumber": "0xac5251b",
          "transactionHash": "0x37c182bf9206e5d82b7073f7e7953cdfcf8ecc1cf6194dcc69b529951f7fb5e3",
          "transactionIndex": "0x13",
          "logIndex": "0x24",
          "removed": false
        }
      ],
      "logsBloom": "0x00000000000000000000000000000000000000000000000000000000000000000000000000000000000000000000010000000000000000000000000000200800000000000000000000000000000000000000000000000000020000000000000000000000000004000000000000000000000000000000000000000000000000000002000000000000000000000000000000000000000000000000000000000000020000000000000000000000000000000400000000000000001000000000000000000000000000000000000000000000000000000000000000000000008000000010000000000000000000000080000000000000000000000000000000000000",
      "type": "0x2",
      "transactionHash": "0x37c182bf9206e5d82b7073f7e7953cdfcf8ecc1cf6194dcc69b529951f7fb5e3",
      "transactionIndex": "0x13",
      "blockHash": "0x1a74dd4f6c4edba7ad5ddc9c3652ac7336e2d7930062a28a62e4d00aa741206e",
      "blockNumber": "0xac5251b",
      "gasUsed": "0x6acc",
      "effectiveGasPrice": "0x5f5e100",
      "from": "0x9dba18e9b96b905919cc828c399d313efd55d800",
      "to": "0x00571860bb39c639e8aad55b4e95d36be228ae11",
      "contractAddress": null,
      "gasUsedForL1": "0x0",
      "l1BlockNumber": "0x880290",
      "timeboosted": false
    },
    {
      "status": "0x1",
      "cumulativeGasUsed": "0x20d64",
      "logs": [
        {
          "address": "0x6d521a93a3b1fef995026ebd537405ebd4a1e481",
          "topics": [
            "0x8c5be1e5ebec7d5bd14f71427d1e84f3dd0314c0f7b2291e5b200ac8c7c3b925",
            "0x0000000000000000000000009dba18e9b96b905919cc828c399d313efd55d800",
            "0x000000000000000000000000cd0b7d5ecd5279d946f99d98633e1942893c3573"
          ],
          "data": "0xffffffffffffffffffffffffffffffffffffffffffffffffffffffffffffffff",
          "blockHash": "0xed7c25069b5a497fbac2e78951abe2a031aa649565cddf711541f0e296e7d6c7",
          "blockNumber": "0xac52522",
          "transactionHash": "0x95badf3a4f8d13998e429ecdb192f85ba66e4e151cadf17863091c4039c44017",
          "transactionIndex": "0x2",
          "logIndex": "0x2",
          "removed": false
        }
      ],
      "logsBloom": "0x00000000000000000000000000000000000000000000000000000000000000000000000000000000000000000000010000000000000000000000000000200800000000000000000000000000000000000000000000000000000000000000000000000000000000000000000000000000000000000000000000000000000000000000000000000000000000000000000000000000000408000000000000000000020000000000000000000000000000000400000020000000001000000000000000000000000000000000000000000000000000000000000000000000008000000010000000000000000000000080000000000000000000000000000000000000",
      "type": "0x2",
      "transactionHash": "0x95badf3a4f8d13998e429ecdb192f85ba66e4e151cadf17863091c4039c44017",
      "transactionIndex": "0x2",
      "blockHash": "0xed7c25069b5a497fbac2e78951abe2a031aa649565cddf711541f0e296e7d6c7",
      "blockNumber": "0xac52522",
      "gasUsed": "0x6ace",
      "effectiveGasPrice": "0x5f5e100",
      "from": "0x9dba18e9b96b905919cc828c399d313efd55d800",
      "to": "0x6d521a93a3b1fef995026ebd537405ebd4a1e481",
      "contractAddress": null,
      "gasUsedForL1": "0x0",
      "l1BlockNumber": "0x880290",
      "timeboosted": false
    },
    {
      "status": "0x1",
      "cumulativeGasUsed": "0x58bc8",
      "logs": [
        {
          "address": "0x75faf114eafb1bdbe2f0316df893fd58ce46aa4d",
          "topics": [
            "0xddf252ad1be2c89b69c2b068fc378daa952ba7f163c4a11628f55a4df523b3ef",
            "0x0000000000000000000000009dba18e9b96b905919cc828c399d313efd55d800",
            "0x000000000000000000000000a17ee04cff341ab9fc7397c3ff5e262d7eaffb6b"
          ],
          "data": "0x000000000000000000000000000000000000000000000000000000000007d3e8",
          "blockHash": "0x68f8439501ea2b8b19a192b81af19a1ee9f09285a5bd8081b7de87d919b083c0",
          "blockNumber": "0xac52529",
          "transactionHash": "0xe87e1462e6ca4d8d45e068612628a266351f01665497efb3597b1cf162398eca",
          "transactionIndex": "0x2",
          "logIndex": "0x4",
          "removed": false
        },
        {
          "address": "0xa17ee04cff341ab9fc7397c3ff5e262d7eaffb6b",
          "topics": [
            "0x18915d317bad4db12ff345e5f7f9619b5d0298928c09cbe4bee5c864f315b0b9",
            "0x0000000000000000000000009dba18e9b96b905919cc828c399d313efd55d800"
          ],
          "data": "0x000000000000000000000000000000000000000000000000000000000007d3e800000000000000000000000000000000000000000000000000009b860a41b000",
          "blockHash": "0x68f8439501ea2b8b19a192b81af19a1ee9f09285a5bd8081b7de87d919b083c0",
          "blockNumber": "0xac52529",
          "transactionHash": "0xe87e1462e6ca4d8d45e068612628a266351f01665497efb3597b1cf162398eca",
          "transactionIndex": "0x2",
          "logIndex": "0x5",
          "removed": false
        },
        {
          "address": "0xfb3e0c6f74eb1a21cc1da29aec80d2dfe6c9a317",
          "topics": [
            "0x40e9cecb9f5f1f1c5b9c97dec2917b7ee92e57ba5563708daca94dd84ad7112f",
            "0x6366fc581ba00f551a143c6f016c507311e08dd74a6a2c76f3f0e6a12469a8ff",
            "0x000000000000000000000000cd0b7d5ecd5279d946f99d98633e1942893c3573"
          ],
          "data": "0x0000000000000000000000000000000000000000000000000022578eacf0447fffffffffffffffffffffffffffffffffffffffffffffffffffdc790d903f0000000000000000000000000000000000000000000104f97d561a48a769c8b746240000000000000000000000000000000000000000000000000e364b50c0bf8e6300000000000000000000000000000000000000000000000000000000000001800000000000000000000000000000000000000000000000000000000000001388",
          "blockHash": "0x68f8439501ea2b8b19a192b81af19a1ee9f09285a5bd8081b7de87d919b083c0",
          "blockNumber": "0xac52529",
          "transactionHash": "0xe87e1462e6ca4d8d45e068612628a266351f01665497efb3597b1cf162398eca",
          "transactionIndex": "0x2",
          "logIndex": "0x6",
          "removed": false
        },
        {
          "address": "0x75c4cd5d01368f89e4957e67867275ddebe740c0",
          "topics": [
            "0x18915d317bad4db12ff345e5f7f9619b5d0298928c09cbe4bee5c864f315b0b9",
            "0x0000000000000000000000009dba18e9b96b905919cc828c399d313efd55d800"
          ],
          "data": "0x000000000000000000000000000000000000000000000000000000000007d3e80000000000000000000000000000000000000000000000000000000000021016",
          "blockHash": "0x68f8439501ea2b8b19a192b81af19a1ee9f09285a5bd8081b7de87d919b083c0",
          "blockNumber": "0xac52529",
          "transactionHash": "0xe87e1462e6ca4d8d45e068612628a266351f01665497efb3597b1cf162398eca",
          "transactionIndex": "0x2",
          "logIndex": "0x7",
          "removed": false
        },
        {
          "address": "0x6d521a93a3b1fef995026ebd537405ebd4a1e481",
          "topics": [
            "0xddf252ad1be2c89b69c2b068fc378daa952ba7f163c4a11628f55a4df523b3ef",
            "0x0000000000000000000000009dba18e9b96b905919cc828c399d313efd55d800",
            "0x000000000000000000000000fb3e0c6f74eb1a21cc1da29aec80d2dfe6c9a317"
          ],
          "data": "0x000000000000000000000000000000000000000000000000002386f26fc10000",
          "blockHash": "0x68f8439501ea2b8b19a192b81af19a1ee9f09285a5bd8081b7de87d919b083c0",
          "blockNumber": "0xac52529",
          "transactionHash": "0xe87e1462e6ca4d8d45e068612628a266351f01665497efb3597b1cf162398eca",
          "transactionIndex": "0x2",
          "logIndex": "0x8",
          "removed": false
        },
        {
          "address": "0x00571860bb39c639e8aad55b4e95d36be228ae11",
          "topics": [
            "0xddf252ad1be2c89b69c2b068fc378daa952ba7f163c4a11628f55a4df523b3ef",
            "0x000000000000000000000000fb3e0c6f74eb1a21cc1da29aec80d2dfe6c9a317",
            "0x0000000000000000000000009dba18e9b96b905919cc828c399d313efd55d800"
          ],
          "data": "0x0000000000000000000000000000000000000000000000000022578eacf0447f",
          "blockHash": "0x68f8439501ea2b8b19a192b81af19a1ee9f09285a5bd8081b7de87d919b083c0",
          "blockNumber": "0xac52529",
          "transactionHash": "0xe87e1462e6ca4d8d45e068612628a266351f01665497efb3597b1cf162398eca",
          "transactionIndex": "0x2",
          "logIndex": "0x9",
          "removed": false
        }
      ],
      "logsBloom": "0x00040040000000000000000000000008000000000020002004000000000000000000000000000000000000000000010000000000040000000000000000000840800000000000000000000008000040000000000000000020024000000000000000000000000404000000400000000020000000200000000000000010000000000202000000000000000000000000000000000000020408000000000000008000000000000000000000000000000000080400000020040000001000000000000000000002000000000000004000000000000000000000000000000000008000000000000000000000004000000080000000000000000000000180000000000004",
      "type": "0x2",
      "transactionHash": "0xe87e1462e6ca4d8d45e068612628a266351f01665497efb3597b1cf162398eca",
      "transactionIndex": "0x2",
      "blockHash": "0x68f8439501ea2b8b19a192b81af19a1ee9f09285a5bd8081b7de87d919b083c0",
      "blockNumber": "0xac52529",
      "gasUsed": "0x3c5ad",
      "effectiveGasPrice": "0x5f5e100",
      "from": "0x9dba18e9b96b905919cc828c399d313efd55d800",
      "to": "0xcd0b7d5ecd5279d946f99d98633e1942893c3573",
      "contractAddress": null,
      "gasUsedForL1": "0x1",
      "l1BlockNumber": "0x880290",
      "timeboosted": false
    }
  ],
  "libraries": [],
  "pending": [],
  "returns": {},
  "timestamp": 1754342293,
  "chain": 421614,
  "commit": "9f7af64"
}