{
  "transactions": [
    {
      "hash": "0x338244c43158032606b73893271268197406af7bf46fb7d24350766f7dbd6b9f",
      "transactionType": "CALL",
      "contractName": null,
      "contractAddress": "0x00571860bb39c639e8aad55b4e95d36be228ae11",
      "function": "approve(address,uint256)",
      "arguments": [
        "0xCD0b7d5ECd5279D946F99d98633E1942893C3573",
        "115792089237316195423570985008687907853269984665640564039457584007913129639935"
      ],
      "transaction": {
        "from": "0x9dba18e9b96b905919cc828c399d313efd55d800",
        "to": "0x00571860bb39c639e8aad55b4e95d36be228ae11",
        "gas": "0x8c9a",
        "value": "0x0",
        "input": "0x095ea7b3000000000000000000000000cd0b7d5ecd5279d946f99d98633e1942893c3573ffffffffffffffffffffffffffffffffffffffffffffffffffffffffffffffff",
        "nonce": "0xd4",
        "chainId": "0x66eee"
      },
      "additionalContracts": [],
      "isFixedGasLimit": false
    },
    {
      "hash": "0xff5c12e492bdcf943e6446ab26b20655f5cc0d216dbe4caf0b0eac80fd2f1fd3",
      "transactionType": "CALL",
      "contractName": null,
      "contractAddress": "0x6d521a93a3b1fef995026ebd537405ebd4a1e481",
      "function": "approve(address,uint256)",
      "arguments": [
        "0xCD0b7d5ECd5279D946F99d98633E1942893C3573",
        "115792089237316195423570985008687907853269984665640564039457584007913129639935"
      ],
      "transaction": {
        "from": "0x9dba18e9b96b905919cc828c399d313efd55d800",
        "to": "0x6d521a93a3b1fef995026ebd537405ebd4a1e481",
        "gas": "0x8c9d",
        "value": "0x0",
        "input": "0x095ea7b3000000000000000000000000cd0b7d5ecd5279d946f99d98633e1942893c3573ffffffffffffffffffffffffffffffffffffffffffffffffffffffffffffffff",
        "nonce": "0xd5",
        "chainId": "0x66eee"
      },
      "additionalContracts": [],
      "isFixedGasLimit": false
    },
    {
      "hash": "0xc1c86d581ed92cc3200670b9e0fa2d019b77f04fb67002035489d8cdba3b93d5",
      "transactionType": "CALL",
      "contractName": null,
      "contractAddress": "0xcd0b7d5ecd5279d946f99d98633e1942893c3573",
      "function": "swapExactTokensForTokens(uint256,uint256,bool,(address,address,uint24,int24,address),bytes,address,uint256)",
      "arguments": [
        "10000000000000000",
        "0",
        "false",
        "(0x00571860bB39C639e8aAD55B4E95D36BE228ae11, 0x6d521a93A3B1fEF995026eBD537405EBD4A1E481, 5000, 100, 0x04bc938847fd15E1082bC7F87a23Fc3f32d0c0C0)",
        "0x00000000000000000000000000000000000000000000000000000000000000000000000000000000000000009dba18e9b96b905919cc828c399d313efd55d800",
        "0x9dBa18e9b96b905919cC828C399d313EfD55D800",
        "1754257849"
      ],
      "transaction": {
        "from": "0x9dba18e9b96b905919cc828c399d313efd55d800",
        "to": "0xcd0b7d5ecd5279d946f99d98633e1942893c3573",
        "gas": "0x25849",
        "value": "0x0",
        "input": "0xb1a0d571000000000000000000000000000000000000000000000000002386f26fc100000000000000000000000000000000000000000000000000000000000000000000000000000000000000000000000000000000000000000000000000000000000000000000000000000000000000571860bb39c639e8aad55b4e95d36be228ae110000000000000000000000006d521a93a3b1fef995026ebd537405ebd4a1e4810000000000000000000000000000000000000000000000000000000000001388000000000000000000000000000000000000000000000000000000000000006400000000000000000000000004bc938847fd15e1082bc7f87a23fc3f32d0c0c000000000000000000000000000000000000000000000000000000000000001600000000000000000000000009dba18e9b96b905919cc828c399d313efd55d80000000000000000000000000000000000000000000000000000000000688fd9b9000000000000000000000000000000000000000000000000000000000000004000000000000000000000000000000000000000000000000000000000000000000000000000000000000000009dba18e9b96b905919cc828c399d313efd55d800",
        "nonce": "0xd6",
        "chainId": "0x66eee"
      },
      "additionalContracts": [],
      "isFixedGasLimit": false
    }
  ],
  "receipts": [
    {
      "status": "0x1",
      "cumulativeGasUsed": "0xbcd8",
      "logs": [
        {
          "address": "0x00571860bb39c639e8aad55b4e95d36be228ae11",
          "topics": [
            "0x8c5be1e5ebec7d5bd14f71427d1e84f3dd0314c0f7b2291e5b200ac8c7c3b925",
            "0x0000000000000000000000009dba18e9b96b905919cc828c399d313efd55d800",
            "0x000000000000000000000000cd0b7d5ecd5279d946f99d98633e1942893c3573"
          ],
          "data": "0xffffffffffffffffffffffffffffffffffffffffffffffffffffffffffffffff",
          "blockHash": "0x0e74a47bc599f7b70ad22fb062c93e809f7f8517bfec426667e9498693b04265",
          "blockNumber": "0xabfd9e9",
          "transactionHash": "0x338244c43158032606b73893271268197406af7bf46fb7d24350766f7dbd6b9f",
          "transactionIndex": "0x2",
          "logIndex": "0x0",
          "removed": false
        }
      ],
      "logsBloom": "0x00000000000000000000000000000000000000000000000000000000000000000000000000000000000000000000010000000000000000000000000000200800000000000000000000000000000000000000000000000000020000000000000000000000000004000000000000000000000000000000000000000000000000000002000000000000000000000000000000000000000000000000000000000000020000000000000000000000000000000400000000000000001000000000000000000000000000000000000000000000000000000000000000000000008000000010000000000000000000000080000000000000000000000000000000000000",
      "type": "0x2",
      "transactionHash": "0x338244c43158032606b73893271268197406af7bf46fb7d24350766f7dbd6b9f",
      "transactionIndex": "0x2",
      "blockHash": "0x0e74a47bc599f7b70ad22fb062c93e809f7f8517bfec426667e9498693b04265",
      "blockNumber": "0xabfd9e9",
      "gasUsed": "0x6acf",
      "effectiveGasPrice": "0x5f5e100",
      "from": "0x9dba18e9b96b905919cc828c399d313efd55d800",
      "to": "0x00571860bb39c639e8aad55b4e95d36be228ae11",
      "contractAddress": null,
      "gasUsedForL1": "0x3",
      "l1BlockNumber": "0x87e60c",
      "timeboosted": false
    },
    {
      "status": "0x1",
      "cumulativeGasUsed": "0xb16ed",
      "logs": [
        {
          "address": "0x6d521a93a3b1fef995026ebd537405ebd4a1e481",
          "topics": [
            "0x8c5be1e5ebec7d5bd14f71427d1e84f3dd0314c0f7b2291e5b200ac8c7c3b925",
            "0x0000000000000000000000009dba18e9b96b905919cc828c399d313efd55d800",
            "0x000000000000000000000000cd0b7d5ecd5279d946f99d98633e1942893c3573"
          ],
          "data": "0xffffffffffffffffffffffffffffffffffffffffffffffffffffffffffffffff",
          "blockHash": "0x6c78a8062f519b24796aebc78331cff8eeab003209821623eb5b467b18c0eb5c",
          "blockNumber": "0xabfd9f0",
          "transactionHash": "0xff5c12e492bdcf943e6446ab26b20655f5cc0d216dbe4caf0b0eac80fd2f1fd3",
          "transactionIndex": "0x6",
          "logIndex": "0xc",
          "removed": false
        }
      ],
      "logsBloom": "0x00000000000000000000000000000000000000000000000000000000000000000000000000000000000000000000010000000000000000000000000000200800000000000000000000000000000000000000000000000000000000000000000000000000000000000000000000000000000000000000000000000000000000000000000000000000000000000000000000000000000408000000000000000000020000000000000000000000000000000400000020000000001000000000000000000000000000000000000000000000000000000000000000000000008000000010000000000000000000000080000000000000000000000000000000000000",
      "type": "0x2",
      "transactionHash": "0xff5c12e492bdcf943e6446ab26b20655f5cc0d216dbe4caf0b0eac80fd2f1fd3",
      "transactionIndex": "0x6",
      "blockHash": "0x6c78a8062f519b24796aebc78331cff8eeab003209821623eb5b467b18c0eb5c",
      "blockNumber": "0xabfd9f0",
      "gasUsed": "0x6ad1",
      "effectiveGasPrice": "0x5f5e100",
      "from": "0x9dba18e9b96b905919cc828c399d313efd55d800",
      "to": "0x6d521a93a3b1fef995026ebd537405ebd4a1e481",
      "contractAddress": null,
      "gasUsedForL1": "0x3",
      "l1BlockNumber": "0x87e60c",
      "timeboosted": false
    },
    {
      "status": "0x1",
      "cumulativeGasUsed": "0x3b32b",
      "logs": [
        {
          "address": "0xfb3e0c6f74eb1a21cc1da29aec80d2dfe6c9a317",
          "topics": [
            "0x40e9cecb9f5f1f1c5b9c97dec2917b7ee92e57ba5563708daca94dd84ad7112f",
            "0x2ffde48cf6c269ca8b78a17350999892a94c3418f3c539b564a8f31bcab7da07",
            "0x000000000000000000000000cd0b7d5ecd5279d946f99d98633e1942893c3573"
          ],
          "data": "0x000000000000000000000000000000000000000000000000001fdad3a1de1c4effffffffffffffffffffffffffffffffffffffffffffffffffdc790d903f000000000000000000000000000000000000000000010eec78024ed9f63d5a25d26c0000000000000000000000000000000000000000000000000e364b50c0bf8e63000000000000000000000000000000000000000000000000000000000000046d0000000000000000000000000000000000000000000000000000000000001388",
          "blockHash": "0xb05b201ac700de4941b1af514359a2504982d4eab579a771cf01a7dcb215377d",
          "blockNumber": "0xabfd9f6",
          "transactionHash": "0xc1c86d581ed92cc3200670b9e0fa2d019b77f04fb67002035489d8cdba3b93d5",
          "transactionIndex": "0x2",
          "logIndex": "0x3",
          "removed": false
        },
        {
          "address": "0x6d521a93a3b1fef995026ebd537405ebd4a1e481",
          "topics": [
            "0xddf252ad1be2c89b69c2b068fc378daa952ba7f163c4a11628f55a4df523b3ef",
            "0x0000000000000000000000009dba18e9b96b905919cc828c399d313efd55d800",
            "0x000000000000000000000000fb3e0c6f74eb1a21cc1da29aec80d2dfe6c9a317"
          ],
          "data": "0x000000000000000000000000000000000000000000000000002386f26fc10000",
          "blockHash": "0xb05b201ac700de4941b1af514359a2504982d4eab579a771cf01a7dcb215377d",
          "blockNumber": "0xabfd9f6",
          "transactionHash": "0xc1c86d581ed92cc3200670b9e0fa2d019b77f04fb67002035489d8cdba3b93d5",
          "transactionIndex": "0x2",
          "logIndex": "0x4",
          "removed": false
        },
        {
          "address": "0x00571860bb39c639e8aad55b4e95d36be228ae11",
          "topics": [
            "0xddf252ad1be2c89b69c2b068fc378daa952ba7f163c4a11628f55a4df523b3ef",
            "0x000000000000000000000000fb3e0c6f74eb1a21cc1da29aec80d2dfe6c9a317",
            "0x0000000000000000000000009dba18e9b96b905919cc828c399d313efd55d800"
          ],
          "data": "0x000000000000000000000000000000000000000000000000001fdad3a1de1c4e",
          "blockHash": "0xb05b201ac700de4941b1af514359a2504982d4eab579a771cf01a7dcb215377d",
          "blockNumber": "0xabfd9f6",
          "transactionHash": "0xc1c86d581ed92cc3200670b9e0fa2d019b77f04fb67002035489d8cdba3b93d5",
          "transactionIndex": "0x2",
          "logIndex": "0x5",
          "removed": false
        }
      ],
      "logsBloom": "0x00000040000000000000000000000008000000000020000000000000000000000000000000000000000000000000010000000000040000000000000000000840000000000000000000000008000000000000000000000020020000000000000000000000000404000000000000000000000000000000000000000010000000000002000000000000000000000000000020000000000408000000000000000000000000000000000000000000000000000400000020000000001000000000000000000002000000000000000000000000000000000000000000000000008000000000000002000000004000000080000000000000000080000000000000000004",
      "type": "0x2",
      "transactionHash": "0xc1c86d581ed92cc3200670b9e0fa2d019b77f04fb67002035489d8cdba3b93d5",
      "transactionIndex": "0x2",
      "blockHash": "0xb05b201ac700de4941b1af514359a2504982d4eab579a771cf01a7dcb215377d",
      "blockNumber": "0xabfd9f6",
      "gasUsed": "0x1c598",
      "effectiveGasPrice": "0x5f5e100",
      "from": "0x9dba18e9b96b905919cc828c399d313efd55d800",
      "to": "0xcd0b7d5ecd5279d946f99d98633e1942893c3573",
      "contractAddress": null,
      "gasUsedForL1": "0x6",
      "l1BlockNumber": "0x87e60c",
      "timeboosted": false
    }
  ],
  "libraries": [],
  "pending": [],
  "returns": {},
  "timestamp": 1754254268,
  "chain": 421614,
  "commit": "9f7af64"
}