{
  "transactions": [
    {
      "hash": "0x1234d9b0e1e782702522eaee98464d175f3b51627f61fb81d41a360494e7442a",
      "transactionType": "CALL",
      "contractName": null,
      "contractAddress": "0x00571860bb39c639e8aad55b4e95d36be228ae11",
      "function": "approve(address,uint256)",
      "arguments": [
        "0xCD0b7d5ECd5279D946F99d98633E1942893C3573",
        "115792089237316195423570985008687907853269984665640564039457584007913129639935"
      ],
      "transaction": {
        "from": "0x9dba18e9b96b905919cc828c399d313efd55d800",
        "to": "0x00571860bb39c639e8aad55b4e95d36be228ae11",
        "gas": "0x8c96",
        "value": "0x0",
        "input": "0x095ea7b3000000000000000000000000cd0b7d5ecd5279d946f99d98633e1942893c3573ffffffffffffffffffffffffffffffffffffffffffffffffffffffffffffffff",
        "nonce": "0xf5",
        "chainId": "0x66eee"
      },
      "additionalContracts": [],
      "isFixedGasLimit": false
    },
    {
      "hash": "0x9948d2f266ed799efa807fb03af7cd480fdd34ab6ec5b0dad34489585dbb592d",
      "transactionType": "CALL",
      "contractName": null,
      "contractAddress": "0x6d521a93a3b1fef995026ebd537405ebd4a1e481",
      "function": "approve(address,uint256)",
      "arguments": [
        "0xCD0b7d5ECd5279D946F99d98633E1942893C3573",
        "115792089237316195423570985008687907853269984665640564039457584007913129639935"
      ],
      "transaction": {
        "from": "0x9dba18e9b96b905919cc828c399d313efd55d800",
        "to": "0x6d521a93a3b1fef995026ebd537405ebd4a1e481",
        "gas": "0x8c99",
        "value": "0x0",
        "input": "0x095ea7b3000000000000000000000000cd0b7d5ecd5279d946f99d98633e1942893c3573ffffffffffffffffffffffffffffffffffffffffffffffffffffffffffffffff",
        "nonce": "0xf6",
        "chainId": "0x66eee"
      },
      "additionalContracts": [],
      "isFixedGasLimit": false
    },
    {
      "hash": "0x4cbb76197d8fbe6e18cadd47279ee612eb90a1f47e1e7a68f88e55640f765fe5",
      "transactionType": "CALL",
      "contractName": null,
      "contractAddress": "0xcd0b7d5ecd5279d946f99d98633e1942893c3573",
      "function": "swapExactTokensForTokens(uint256,uint256,bool,(address,address,uint24,int24,address),bytes,address,uint256)",
      "arguments": [
        "10000000000000000",
        "0",
        "false",
        "(0x00571860bB39C639e8aAD55B4E95D36BE228ae11, 0x6d521a93A3B1fEF995026eBD537405EBD4A1E481, 5000, 100, 0x75c4cD5D01368F89E4957e67867275DDEBE740C0)",
        "0x00000000000000000000000000000000000000000000000000000000000000010000000000000000000000009dba18e9b96b905919cc828c399d313efd55d800",
        "0x9dBa18e9b96b905919cC828C399d313EfD55D800",
        "1754348864"
      ],
      "transaction": {
        "from": "0x9dba18e9b96b905919cc828c399d313efd55d800",
        "to": "0xcd0b7d5ecd5279d946f99d98633e1942893c3573",
        "gas": "0x59637",
        "value": "0x0",
        "input": "0xb1a0d571000000000000000000000000000000000000000000000000002386f26fc100000000000000000000000000000000000000000000000000000000000000000000000000000000000000000000000000000000000000000000000000000000000000000000000000000000000000571860bb39c639e8aad55b4e95d36be228ae110000000000000000000000006d521a93a3b1fef995026ebd537405ebd4a1e4810000000000000000000000000000000000000000000000000000000000001388000000000000000000000000000000000000000000000000000000000000006400000000000000000000000075c4cd5d01368f89e4957e67867275ddebe740c000000000000000000000000000000000000000000000000000000000000001600000000000000000000000009dba18e9b96b905919cc828c399d313efd55d8000000000000000000000000000000000000000000000000000000000068913d40000000000000000000000000000000000000000000000000000000000000004000000000000000000000000000000000000000000000000000000000000000010000000000000000000000009dba18e9b96b905919cc828c399d313efd55d800",
        "nonce": "0xf7",
        "chainId": "0x66eee"
      },
      "additionalContracts": [],
      "isFixedGasLimit": false
    }
  ],
  "receipts": [
    {
      "status": "0x1",
      "cumulativeGasUsed": "0x6acc",
      "logs": [
        {
          "address": "0x00571860bb39c639e8aad55b4e95d36be228ae11",
          "topics": [
            "0x8c5be1e5ebec7d5bd14f71427d1e84f3dd0314c0f7b2291e5b200ac8c7c3b925",
            "0x0000000000000000000000009dba18e9b96b905919cc828c399d313efd55d800",
            "0x000000000000000000000000cd0b7d5ecd5279d946f99d98633e1942893c3573"
          ],
          "data": "0xffffffffffffffffffffffffffffffffffffffffffffffffffffffffffffffff",
          "blockHash": "0x35b3a05a86e0443fa1e056038b5cefdb255a7c0fbba82036d25e7b11c4099dab",
          "blockNumber": "0xac551c7",
          "transactionHash": "0x1234d9b0e1e782702522eaee98464d175f3b51627f61fb81d41a360494e7442a",
          "transactionIndex": "0x1",
          "logIndex": "0x0",
          "removed": false
        }
      ],
      "logsBloom": "0x00000000000000000000000000000000000000000000000000000000000000000000000000000000000000000000010000000000000000000000000000200800000000000000000000000000000000000000000000000000020000000000000000000000000004000000000000000000000000000000000000000000000000000002000000000000000000000000000000000000000000000000000000000000020000000000000000000000000000000400000000000000001000000000000000000000000000000000000000000000000000000000000000000000008000000010000000000000000000000080000000000000000000000000000000000000",
      "type": "0x2",
      "transactionHash": "0x1234d9b0e1e782702522eaee98464d175f3b51627f61fb81d41a360494e7442a",
      "transactionIndex": "0x1",
      "blockHash": "0x35b3a05a86e0443fa1e056038b5cefdb255a7c0fbba82036d25e7b11c4099dab",
      "blockNumber": "0xac551c7",
      "gasUsed": "0x6acc",
      "effectiveGasPrice": "0x5f5e100",
      "from": "0x9dba18e9b96b905919cc828c399d313efd55d800",
      "to": "0x00571860bb39c639e8aad55b4e95d36be228ae11",
      "contractAddress": null,
      "gasUsedForL1": "0x0",
      "l1BlockNumber": "0x88038a",
      "timeboosted": false
    },
    {
      "status": "0x1",
      "cumulativeGasUsed": "0x2316a",
      "logs": [
        {
          "address": "0x6d521a93a3b1fef995026ebd537405ebd4a1e481",
          "topics": [
            "0x8c5be1e5ebec7d5bd14f71427d1e84f3dd0314c0f7b2291e5b200ac8c7c3b925",
            "0x0000000000000000000000009dba18e9b96b905919cc828c399d313efd55d800",
            "0x000000000000000000000000cd0b7d5ecd5279d946f99d98633e1942893c3573"
          ],
          "data": "0xffffffffffffffffffffffffffffffffffffffffffffffffffffffffffffffff",
          "blockHash": "0xeb320bdff134afca5a4729bd157bb5eeff1caa106a4cfeef41b83062999363be",
          "blockNumber": "0xac551d1",
          "transactionHash": "0x9948d2f266ed799efa807fb03af7cd480fdd34ab6ec5b0dad34489585dbb592d",
          "transactionIndex": "0x2",
          "logIndex": "0x4",
          "removed": false
        }
      ],
      "logsBloom": "0x00000000000000000000000000000000000000000000000000000000000000000000000000000000000000000000010000000000000000000000000000200800000000000000000000000000000000000000000000000000000000000000000000000000000000000000000000000000000000000000000000000000000000000000000000000000000000000000000000000000000408000000000000000000020000000000000000000000000000000400000020000000001000000000000000000000000000000000000000000000000000000000000000000000008000000010000000000000000000000080000000000000000000000000000000000000",
      "type": "0x2",
      "transactionHash": "0x9948d2f266ed799efa807fb03af7cd480fdd34ab6ec5b0dad34489585dbb592d",
      "transactionIndex": "0x2",
      "blockHash": "0xeb320bdff134afca5a4729bd157bb5eeff1caa106a4cfeef41b83062999363be",
      "blockNumber": "0xac551d1",
      "gasUsed": "0x6ace",
      "effectiveGasPrice": "0x5f5e100",
      "from": "0x9dba18e9b96b905919cc828c399d313efd55d800",
      "to": "0x6d521a93a3b1fef995026ebd537405ebd4a1e481",
      "contractAddress": null,
      "gasUsedForL1": "0x0",
      "l1BlockNumber": "0x88038a",
      "timeboosted": false
    },
    {
      "status": "0x1",
      "cumulativeGasUsed": "0x1ed4f6",
      "logs": [
        {
          "address": "0x75faf114eafb1bdbe2f0316df893fd58ce46aa4d",
          "topics": [
            "0xddf252ad1be2c89b69c2b068fc378daa952ba7f163c4a11628f55a4df523b3ef",
            "0x0000000000000000000000009dba18e9b96b905919cc828c399d313efd55d800",
            "0x000000000000000000000000a17ee04cff341ab9fc7397c3ff5e262d7eaffb6b"
          ],
          "data": "0x000000000000000000000000000000000000000000000000000000000007d3e8",
          "blockHash": "0x55c95f6e86a965fa9993a00c322ab25ecf5939ad05095e35b3f6da1fc306a856",
          "blockNumber": "0xac551e9",
          "transactionHash": "0x4cbb76197d8fbe6e18cadd47279ee612eb90a1f47e1e7a68f88e55640f765fe5",
          "transactionIndex": "0x7",
          "logIndex": "0x18",
          "removed": false
        },
        {
          "address": "0xa17ee04cff341ab9fc7397c3ff5e262d7eaffb6b",
          "topics": [
            "0x18915d317bad4db12ff345e5f7f9619b5d0298928c09cbe4bee5c864f315b0b9",
            "0x0000000000000000000000009dba18e9b96b905919cc828c399d313efd55d800"
          ],
          "data": "0x000000000000000000000000000000000000000000000000000000000007d3e800000000000000000000000000000000000000000000000000009b860a41b000",
          "blockHash": "0x55c95f6e86a965fa9993a00c322ab25ecf5939ad05095e35b3f6da1fc306a856",
          "blockNumber": "0xac551e9",
          "transactionHash": "0x4cbb76197d8fbe6e18cadd47279ee612eb90a1f47e1e7a68f88e55640f765fe5",
          "transactionIndex": "0x7",
          "logIndex": "0x19",
          "removed": false
        },
        {
          "address": "0xfb3e0c6f74eb1a21cc1da29aec80d2dfe6c9a317",
          "topics": [
            "0x40e9cecb9f5f1f1c5b9c97dec2917b7ee92e57ba5563708daca94dd84ad7112f",
            "0x6366fc581ba00f551a143c6f016c507311e08dd74a6a2c76f3f0e6a12469a8ff",
            "0x000000000000000000000000cd0b7d5ecd5279d946f99d98633e1942893c3573"
          ],
          "data": "0x0000000000000000000000000000000000000000000000000021b18f1fb8f221ffffffffffffffffffffffffffffffffffffffffffffffffffdc790d903f0000000000000000000000000000000000000000000107763c01276cfb1ead12e9360000000000000000000000000000000000000000000000000e364b50c0bf8e63000000000000000000000000000000000000000000000000000000000000023e0000000000000000000000000000000000000000000000000000000000001388",
          "blockHash": "0x55c95f6e86a965fa9993a00c322ab25ecf5939ad05095e35b3f6da1fc306a856",
          "blockNumber": "0xac551e9",
          "transactionHash": "0x4cbb76197d8fbe6e18cadd47279ee612eb90a1f47e1e7a68f88e55640f765fe5",
          "transactionIndex": "0x7",
          "logIndex": "0x1a",
          "removed": false
        },
        {
          "address": "0x75c4cd5d01368f89e4957e67867275ddebe740c0",
          "topics": [
            "0x18915d317bad4db12ff345e5f7f9619b5d0298928c09cbe4bee5c864f315b0b9",
            "0x0000000000000000000000009dba18e9b96b905919cc828c399d313efd55d800"
          ],
          "data": "0x00000000000000000000000000000000000000000000000000000000000fa7d000000000000000000000000000000000000000000000000000000000000212a9",
          "blockHash": "0x55c95f6e86a965fa9993a00c322ab25ecf5939ad05095e35b3f6da1fc306a856",
          "blockNumber": "0xac551e9",
          "transactionHash": "0x4cbb76197d8fbe6e18cadd47279ee612eb90a1f47e1e7a68f88e55640f765fe5",
          "transactionIndex": "0x7",
          "logIndex": "0x1b",
          "removed": false
        },
        {
          "address": "0x6d521a93a3b1fef995026ebd537405ebd4a1e481",
          "topics": [
            "0xddf252ad1be2c89b69c2b068fc378daa952ba7f163c4a11628f55a4df523b3ef",
            "0x0000000000000000000000009dba18e9b96b905919cc828c399d313efd55d800",
            "0x000000000000000000000000fb3e0c6f74eb1a21cc1da29aec80d2dfe6c9a317"
          ],
          "data": "0x000000000000000000000000000000000000000000000000002386f26fc10000",
          "blockHash": "0x55c95f6e86a965fa9993a00c322ab25ecf5939ad05095e35b3f6da1fc306a856",
          "blockNumber": "0xac551e9",
          "transactionHash": "0x4cbb76197d8fbe6e18cadd47279ee612eb90a1f47e1e7a68f88e55640f765fe5",
          "transactionIndex": "0x7",
          "logIndex": "0x1c",
          "removed": false
        },
        {
          "address": "0x00571860bb39c639e8aad55b4e95d36be228ae11",
          "topics": [
            "0xddf252ad1be2c89b69c2b068fc378daa952ba7f163c4a11628f55a4df523b3ef",
            "0x000000000000000000000000fb3e0c6f74eb1a21cc1da29aec80d2dfe6c9a317",
            "0x0000000000000000000000009dba18e9b96b905919cc828c399d313efd55d800"
          ],
          "data": "0x0000000000000000000000000000000000000000000000000021b18f1fb8f221",
          "blockHash": "0x55c95f6e86a965fa9993a00c322ab25ecf5939ad05095e35b3f6da1fc306a856",
          "blockNumber": "0xac551e9",
          "transactionHash": "0x4cbb76197d8fbe6e18cadd47279ee612eb90a1f47e1e7a68f88e55640f765fe5",
          "transactionIndex": "0x7",
          "logIndex": "0x1d",
          "removed": false
        }
      ],
      "logsBloom": "0x00040040000000000000000000000008000000000020002004000000000000000000000000000000000000000000010000000000040000000000000000000840800000000000000000000008000040000000000000000020024000000000000000000000000404000000400000000020000000200000000000000010000000000202000000000000000000000000000000000000020408000000000000008000000000000000000000000000000000080400000020040000001000000000000000000002000000000000004000000000000000000000000000000000008000000000000000000000004000000080000000000000000000000180000000000004",
      "type": "0x2",
      "transactionHash": "0x4cbb76197d8fbe6e18cadd47279ee612eb90a1f47e1e7a68f88e55640f765fe5",
      "transactionIndex": "0x7",
      "blockHash": "0x55c95f6e86a965fa9993a00c322ab25ecf5939ad05095e35b3f6da1fc306a856",
      "blockNumber": "0xac551e9",
      "gasUsed": "0x35b33",
      "effectiveGasPrice": "0x5f5e100",
      "from": "0x9dba18e9b96b905919cc828c399d313efd55d800",
      "to": "0xcd0b7d5ecd5279d946f99d98633e1942893c3573",
      "contractAddress": null,
      "gasUsedForL1": "0x0",
      "l1BlockNumber": "0x88038a",
      "timeboosted": false
    }
  ],
  "libraries": [],
  "pending": [],
  "returns": {},
  "timestamp": 1754345300,
  "chain": 421614,
  "commit": "9f7af64"
}