{
  "transactions": [
    {
      "hash": "0xfe3e8f5927f7825d324c0d5bdd4de71b7f5a8c8400782d1af83790c20c637aae",
      "transactionType": "CALL",
      "contractName": null,
      "contractAddress": "0xa17ee04cff341ab9fc7397c3ff5e262d7eaffb6b",
      "function": "processGasPayment(address,uint256)",
      "arguments": [
        "0x9dBa18e9b96b905919cC828C399d313EfD55D800",
        "200000"
      ],
      "transaction": {
        "from": "0x9dba18e9b96b905919cc828c399d313efd55d800",
        "to": "0xa17ee04cff341ab9fc7397c3ff5e262d7eaffb6b",
        "gas": "0x1875f",
        "value": "0x0",
        "input": "0x093b49200000000000000000000000009dba18e9b96b905919cc828c399d313efd55d8000000000000000000000000000000000000000000000000000000000000030d40",
        "nonce": "0x103",
        "chainId": "0x66eee"
      },
      "additionalContracts": [],
      "isFixedGasLimit": false
    }
  ],
  "receipts": [
    {
      "status": "0x1",
      "cumulativeGasUsed": "0x48ec6",
      "logs": [
        {
          "address": "0x75faf114eafb1bdbe2f0316df893fd58ce46aa4d",
          "topics": [
            "0xddf252ad1be2c89b69c2b068fc378daa952ba7f163c4a11628f55a4df523b3ef",
            "0x0000000000000000000000009dba18e9b96b905919cc828c399d313efd55d800",
            "0x000000000000000000000000a17ee04cff341ab9fc7397c3ff5e262d7eaffb6b"
          ],
          "data": "0x000000000000000000000000000000000000000000000000000000000007d3e8",
          "blockHash": "0x3dc2a3192e21789b5c6f1df4fc4bc39798b1c0044ab924d476c96e3948d369b2",
          "blockNumber": "0xac7533c",
          "transactionHash": "0xfe3e8f5927f7825d324c0d5bdd4de71b7f5a8c8400782d1af83790c20c637aae",
          "transactionIndex": "0x3",
          "logIndex": "0x7",
          "removed": false
        },
        {
          "address": "0xa17ee04cff341ab9fc7397c3ff5e262d7eaffb6b",
          "topics": [
            "0x18915d317bad4db12ff345e5f7f9619b5d0298928c09cbe4bee5c864f315b0b9",
            "0x0000000000000000000000009dba18e9b96b905919cc828c399d313efd55d800"
          ],
          "data": "0x000000000000000000000000000000000000000000000000000000000007d3e800000000000000000000000000000000000000000000000000009b860a41b000",
          "blockHash": "0x3dc2a3192e21789b5c6f1df4fc4bc39798b1c0044ab924d476c96e3948d369b2",
          "blockNumber": "0xac7533c",
          "transactionHash": "0xfe3e8f5927f7825d324c0d5bdd4de71b7f5a8c8400782d1af83790c20c637aae",
          "transactionIndex": "0x3",
          "logIndex": "0x8",
          "removed": false
        }
      ],
      "logsBloom": "0x00040000000000000000000000000000000000000000000000000000000000000000000000000000000000000000000000000000000000000000000000000800800000000000000000000008000040000000000000000000004000000000000000000000000000000000000000000020000000200000000000000010000000000200000000000000000000000000000000000000000000000000000000000000000000000000000000000000000000080400000000040000001000000000000000000002000000000000004000000000000000000000000000000000000000000000000000000000000000000000000000000000000000000100000000000004",
      "type": "0x2",
      "transactionHash": "0xfe3e8f5927f7825d324c0d5bdd4de71b7f5a8c8400782d1af83790c20c637aae",
      "transactionIndex": "0x3",
      "blockHash": "0x3dc2a3192e21789b5c6f1df4fc4bc39798b1c0044ab924d476c96e3948d369b2",
      "blockNumber": "0xac7533c",
      "gasUsed": "0x12aba",
      "effectiveGasPrice": "0x5f5e100",
      "from": "0x9dba18e9b96b905919cc828c399d313efd55d800",
      "to": "0xa17ee04cff341ab9fc7397c3ff5e262d7eaffb6b",
      "contractAddress": null,
      "gasUsedForL1": "0x0",
      "l1BlockNumber": "0x880e91",
      "timeboosted": false
    }
  ],
  "libraries": [],
  "pending": [],
  "returns": {},
  "timestamp": 1754379263,
  "chain": 421614,
  "commit": "9f7af64"
}