{
  "transactions": [
    {
      "hash": "0x56248280d4abd79d527893bba0f3168f5b2d4511418b6341d3e9fa11e52c66d5",
      "transactionType": "CALL",
      "contractName": null,
      "contractAddress": "0x6d521a93a3b1fef995026ebd537405ebd4a1e481",
      "function": "approve(address,uint256)",
      "arguments": [
        "0x000000000022D473030F116dDEE9F6B43aC78BA3",
        "115792089237316195423570985008687907853269984665640564039457584007913129639935"
      ],
      "transaction": {
        "from": "0x9dba18e9b96b905919cc828c399d313efd55d800",
        "to": "0x6d521a93a3b1fef995026ebd537405ebd4a1e481",
        "gas": "0x8c4b",
        "value": "0x0",
        "input": "0x095ea7b3000000000000000000000000000000000022d473030f116ddee9f6b43ac78ba3ffffffffffffffffffffffffffffffffffffffffffffffffffffffffffffffff",
        "nonce": "0xdc",
        "chainId": "0x66eee"
      },
      "additionalContracts": [],
      "isFixedGasLimit": false
    },
    {
      "hash": "0x7086f34d91bc783a61527b44c84bad9af815633e7a5dabcad9e16f394d8c285a",
      "transactionType": "CALL",
      "contractName": null,
      "contractAddress": "0x000000000022d473030f116ddee9f6b43ac78ba3",
      "function": "approve(address,address,uint160,uint48)",
      "arguments": [
        "0x6d521a93A3B1fEF995026eBD537405EBD4A1E481",
        "0xAc631556d3d4019C95769033B5E719dD77124BAc",
        "1461501637330902918203684832716283019655932542975",
        "281474976710655"
      ],
      "transaction": {
        "from": "0x9dba18e9b96b905919cc828c399d313efd55d800",
        "to": "0x000000000022d473030f116ddee9f6b43ac78ba3",
        "gas": "0x8f87",
        "value": "0x0",
        "input": "0x87517c450000000000000000000000006d521a93a3b1fef995026ebd537405ebd4a1e481000000000000000000000000ac631556d3d4019c95769033b5e719dd77124bac000000000000000000000000ffffffffffffffffffffffffffffffffffffffff0000000000000000000000000000000000000000000000000000ffffffffffff",
        "nonce": "0xdd",
        "chainId": "0x66eee"
      },
      "additionalContracts": [],
      "isFixedGasLimit": false
    },
    {
      "hash": "0xb7b98a08e3f32a532bbd516e0eb804334bbc0ce17658590a2d41ae4f3acbf853",
      "transactionType": "CALL",
      "contractName": null,
      "contractAddress": "0x00571860bb39c639e8aad55b4e95d36be228ae11",
      "function": "approve(address,uint256)",
      "arguments": [
        "0x000000000022D473030F116dDEE9F6B43aC78BA3",
        "115792089237316195423570985008687907853269984665640564039457584007913129639935"
      ],
      "transaction": {
        "from": "0x9dba18e9b96b905919cc828c399d313efd55d800",
        "to": "0x00571860bb39c639e8aad55b4e95d36be228ae11",
        "gas": "0x8c48",
        "value": "0x0",
        "input": "0x095ea7b3000000000000000000000000000000000022d473030f116ddee9f6b43ac78ba3ffffffffffffffffffffffffffffffffffffffffffffffffffffffffffffffff",
        "nonce": "0xde",
        "chainId": "0x66eee"
      },
      "additionalContracts": [],
      "isFixedGasLimit": false
    },
    {
      "hash": "0xbe30acddfd44a359273e1cbb6f398843ead0203a92da1df134accec73ea36778",
      "transactionType": "CALL",
      "contractName": null,
      "contractAddress": "0x000000000022d473030f116ddee9f6b43ac78ba3",
      "function": "approve(address,address,uint160,uint48)",
      "arguments": [
        "0x00571860bB39C639e8aAD55B4E95D36BE228ae11",
        "0xAc631556d3d4019C95769033B5E719dD77124BAc",
        "1461501637330902918203684832716283019655932542975",
        "281474976710655"
      ],
      "transaction": {
        "from": "0x9dba18e9b96b905919cc828c399d313efd55d800",
        "to": "0x000000000022d473030f116ddee9f6b43ac78ba3",
        "gas": "0x8f77",
        "value": "0x0",
        "input": "0x87517c4500000000000000000000000000571860bb39c639e8aad55b4e95d36be228ae11000000000000000000000000ac631556d3d4019c95769033b5e719dd77124bac000000000000000000000000ffffffffffffffffffffffffffffffffffffffff0000000000000000000000000000000000000000000000000000ffffffffffff",
        "nonce": "0xdf",
        "chainId": "0x66eee"
      },
      "additionalContracts": [],
      "isFixedGasLimit": false
    },
    {
      "hash": "0x9805f02ceaf4996a2813bcef00ea80f555be9841e94f7dd91aecacbc2bfc5eeb",
      "transactionType": "CALL",
      "contractName": null,
      "contractAddress": "0xac631556d3d4019c95769033b5e719dd77124bac",
      "function": "multicall(bytes[])",
      "arguments": [
        "[0xf702040500000000000000000000000000571860bb39c639e8aad55b4e95d36be228ae110000000000000000000000006d521a93a3b1fef995026ebd537405ebd4a1e48100000000000000000000000000000000000000000000000000000000000013880000000000000000000000000000000000000000000000000000000000000064000000000000000000000000c9ddfe52a76433c46fd4dac86832ee814cec00c0000000000000000000000000000000000000000100000000000000000000000000000000000000000000000000000000000000000000000000000000000000e00000000000000000000000000000000000000000000000000000000000000000, 0xdd46508f000000000000000000000000000000000000000000000000000000000000004000000000000000000000000000000000000000000000000000000000688ff1cf0000000000000000000000000000000000000000000000000000000000000400000000000000000000000000000000000000000000000000000000000000004000000000000000000000000000000000000000000000000000000000000000800000000000000000000000000000000000000000000000000000000000000004020d14140000000000000000000000000000000000000000000000000000000000000000000000000000000000000000000000000000000000000000000000040000000000000000000000000000000000000000000000000000000000000080000000000000000000000000000000000000000000000000000000000000024000000000000000000000000000000000000000000000000000000000000002a0000000000000000000000000000000000000000000000000000000000000030000000000000000000000000000000000000000000000000000000000000001a000000000000000000000000000571860bb39c639e8aad55b4e95d36be228ae110000000000000000000000006d521a93a3b1fef995026ebd537405ebd4a1e48100000000000000000000000000000000000000000000000000000000000013880000000000000000000000000000000000000000000000000000000000000064000000000000000000000000c9ddfe52a76433c46fd4dac86832ee814cec00c0fffffffffffffffffffffffffffffffffffffffffffffffffffffffffffedb0800000000000000000000000000000000000000000000000000000000000124f80000000000000000000000000000000000000000000000000e364b50c0bf8e630000000000000000000000000000000000000000000000000de0b6b3a76400010000000000000000000000000000000000000000000000000de0b6b3a76400010000000000000000000000009dba18e9b96b905919cc828c399d313efd55d80000000000000000000000000000000000000000000000000000000000000001800000000000000000000000000000000000000000000000000000000000000000000000000000000000000000000000000000000000000000000000000000004000000000000000000000000000571860bb39c639e8aad55b4e95d36be228ae110000000000000000000000006d521a93a3b1fef995026ebd537405ebd4a1e481000000000000000000000000000000000000000000000000000000000000004000000000000000000000000000571860bb39c639e8aad55b4e95d36be228ae110000000000000000000000009dba18e9b96b905919cc828c399d313efd55d80000000000000000000000000000000000000000000000000000000000000000400000000000000000000000006d521a93a3b1fef995026ebd537405ebd4a1e4810000000000000000000000009dba18e9b96b905919cc828c399d313efd55d800]"
      ],
      "transaction": {
        "from": "0x9dba18e9b96b905919cc828c399d313efd55d800",
        "to": "0xac631556d3d4019c95769033b5e719dd77124bac",
        "gas": "0x908f9",
        "value": "0x0",
        "input": "0xac9650d800000000000000000000000000000000000000000000000000000000000000200000000000000000000000000000000000000000000000000000000000000002000000000000000000000000000000000000000000000000000000000000004000000000000000000000000000000000000000000000000000000000000001800000000000000000000000000000000000000000000000000000000000000104f702040500000000000000000000000000571860bb39c639e8aad55b4e95d36be228ae110000000000000000000000006d521a93a3b1fef995026ebd537405ebd4a1e48100000000000000000000000000000000000000000000000000000000000013880000000000000000000000000000000000000000000000000000000000000064000000000000000000000000c9ddfe52a76433c46fd4dac86832ee814cec00c0000000000000000000000000000000000000000100000000000000000000000000000000000000000000000000000000000000000000000000000000000000e00000000000000000000000000000000000000000000000000000000000000000000000000000000000000000000000000000000000000000000000000000000000000000000000000000000000000000000000000000000000000464dd46508f000000000000000000000000000000000000000000000000000000000000004000000000000000000000000000000000000000000000000000000000688ff1cf0000000000000000000000000000000000000000000000000000000000000400000000000000000000000000000000000000000000000000000000000000004000000000000000000000000000000000000000000000000000000000000000800000000000000000000000000000000000000000000000000000000000000004020d14140000000000000000000000000000000000000000000000000000000000000000000000000000000000000000000000000000000000000000000000040000000000000000000000000000000000000000000000000000000000000080000000000000000000000000000000000000000000000000000000000000024000000000000000000000000000000000000000000000000000000000000002a0000000000000000000000000000000000000000000000000000000000000030000000000000000000000000000000000000000000000000000000000000001a000000000000000000000000000571860bb39c639e8aad55b4e95d36be228ae110000000000000000000000006d521a93a3b1fef995026ebd537405ebd4a1e48100000000000000000000000000000000000000000000000000000000000013880000000000000000000000000000000000000000000000000000000000000064000000000000000000000000c9ddfe52a76433c46fd4dac86832ee814cec00c0fffffffffffffffffffffffffffffffffffffffffffffffffffffffffffedb0800000000000000000000000000000000000000000000000000000000000124f80000000000000000000000000000000000000000000000000e364b50c0bf8e630000000000000000000000000000000000000000000000000de0b6b3a76400010000000000000000000000000000000000000000000000000de0b6b3a76400010000000000000000000000009dba18e9b96b905919cc828c399d313efd55d80000000000000000000000000000000000000000000000000000000000000001800000000000000000000000000000000000000000000000000000000000000000000000000000000000000000000000000000000000000000000000000000004000000000000000000000000000571860bb39c639e8aad55b4e95d36be228ae110000000000000000000000006d521a93a3b1fef995026ebd537405ebd4a1e481000000000000000000000000000000000000000000000000000000000000004000000000000000000000000000571860bb39c639e8aad55b4e95d36be228ae110000000000000000000000009dba18e9b96b905919cc828c399d313efd55d80000000000000000000000000000000000000000000000000000000000000000400000000000000000000000006d521a93a3b1fef995026ebd537405ebd4a1e4810000000000000000000000009dba18e9b96b905919cc828c399d313efd55d80000000000000000000000000000000000000000000000000000000000",
        "nonce": "0xe0",
        "chainId": "0x66eee"
      },
      "additionalContracts": [],
      "isFixedGasLimit": false
    }
  ],
  "receipts": [
    {
      "status": "0x1",
      "cumulativeGasUsed": "0x2ee34",
      "logs": [
        {
          "address": "0x6d521a93a3b1fef995026ebd537405ebd4a1e481",
          "topics": [
            "0x8c5be1e5ebec7d5bd14f71427d1e84f3dd0314c0f7b2291e5b200ac8c7c3b925",
            "0x0000000000000000000000009dba18e9b96b905919cc828c399d313efd55d800",
            "0x000000000000000000000000000000000022d473030f116ddee9f6b43ac78ba3"
          ],
          "data": "0xffffffffffffffffffffffffffffffffffffffffffffffffffffffffffffffff",
          "blockHash": "0xf169e74eeddfa30d8ed7a24cace46c9657f49d1e0bc7ee285b283c67f5552a33",
          "blockNumber": "0xac03650",
          "transactionHash": "0x56248280d4abd79d527893bba0f3168f5b2d4511418b6341d3e9fa11e52c66d5",
          "transactionIndex": "0x3",
          "logIndex": "0x4",
          "removed": false
        }
      ],
      "logsBloom": "0x00000000000000000000000000000000000000000000000000000000000000000000000000000000000000000000000000000000800000000000000000200800000000000000000000004000000000000000000000000800000000000000000000000000000000000000000000000000000000000000000000000000000000000000000000000000000000000000000000000000000408000000000000000000020000000000000000000000000000000400000020000000001000000000000000000000000000000000000000000000000000000000000000000000000000000010000000000000000000000000000000000000000000000000000000000000",
      "type": "0x2",
      "transactionHash": "0x56248280d4abd79d527893bba0f3168f5b2d4511418b6341d3e9fa11e52c66d5",
      "transactionIndex": "0x3",
      "blockHash": "0xf169e74eeddfa30d8ed7a24cace46c9657f49d1e0bc7ee285b283c67f5552a33",
      "blockNumber": "0xac03650",
      "gasUsed": "0x6a92",
      "effectiveGasPrice": "0x5f5e100",
      "from": "0x9dba18e9b96b905919cc828c399d313efd55d800",
      "to": "0x6d521a93a3b1fef995026ebd537405ebd4a1e481",
      "contractAddress": null,
      "gasUsedForL1": "0x0",
      "l1BlockNumber": "0x87e80c",
      "timeboosted": false
    },
    {
      "status": "0x1",
      "cumulativeGasUsed": "0x15096",
      "logs": [
        {
          "address": "0x000000000022d473030f116ddee9f6b43ac78ba3",
          "topics": [
            "0xda9fa7c1b00402c17d0161b249b1ab8bbec047c5a52207b9c112deffd817036b",
            "0x0000000000000000000000009dba18e9b96b905919cc828c399d313efd55d800",
            "0x0000000000000000000000006d521a93a3b1fef995026ebd537405ebd4a1e481",
            "0x000000000000000000000000ac631556d3d4019c95769033b5e719dd77124bac"
          ],
          "data": "0x000000000000000000000000ffffffffffffffffffffffffffffffffffffffff0000000000000000000000000000000000000000000000000000ffffffffffff",
          "blockHash": "0x292aeb44891716f30cba45fc59936c416c697681c277e7bacbe021a13c4f3f48",
          "blockNumber": "0xac03667",
          "transactionHash": "0x7086f34d91bc783a61527b44c84bad9af815633e7a5dabcad9e16f394d8c285a",
          "transactionIndex": "0x2",
          "logIndex": "0x2",
          "removed": false
        }
      ],
      "logsBloom": "0x00010000000000000000000000000000000000000000000000000000000000000000000000000000100000000000000000000000000000000000000000080800000000000020000000000000000002000000000000000000000000000000000000000000000000000000000000000000000000000000000000000000000000000020000000000000000000000000000000000000000000000000000000000000000000000000000000000000000000000400000000000000001000080000000000000000000000200000010000000000000000000000000050000000000000000000000000000000000000000000000000000000000000000000000000000400",
      "type": "0x2",
      "transactionHash": "0x7086f34d91bc783a61527b44c84bad9af815633e7a5dabcad9e16f394d8c285a",
      "transactionIndex": "0x2",
      "blockHash": "0x292aeb44891716f30cba45fc59936c416c697681c277e7bacbe021a13c4f3f48",
      "blockNumber": "0xac03667",
      "gasUsed": "0x6d0e",
      "effectiveGasPrice": "0x5f5e100",
      "from": "0x9dba18e9b96b905919cc828c399d313efd55d800",
      "to": "0x000000000022d473030f116ddee9f6b43ac78ba3",
      "contractAddress": null,
      "gasUsedForL1": "0x0",
      "l1BlockNumber": "0x87e80d",
      "timeboosted": false
    },
    {
      "status": "0x1",
      "cumulativeGasUsed": "0x6a90",
      "logs": [
        {
          "address": "0x00571860bb39c639e8aad55b4e95d36be228ae11",
          "topics": [
            "0x8c5be1e5ebec7d5bd14f71427d1e84f3dd0314c0f7b2291e5b200ac8c7c3b925",
            "0x0000000000000000000000009dba18e9b96b905919cc828c399d313efd55d800",
            "0x000000000000000000000000000000000022d473030f116ddee9f6b43ac78ba3"
          ],
          "data": "0xffffffffffffffffffffffffffffffffffffffffffffffffffffffffffffffff",
          "blockHash": "0x4c3ff24a7f432b372df0e78a9574c81f55906a62610dc57d32b2dd163462f1b0",
          "blockNumber": "0xac0367a",
          "transactionHash": "0xb7b98a08e3f32a532bbd516e0eb804334bbc0ce17658590a2d41ae4f3acbf853",
          "transactionIndex": "0x1",
          "logIndex": "0x0",
          "removed": false
        }
      ],
      "logsBloom": "0x00000000000000000000000000000000000000000000000000000000000000000000000000000000000000000000000000000000800000000000000000200800000000000000000000004000000000000000000000000800020000000000000000000000000004000000000000000000000000000000000000000000000000000002000000000000000000000000000000000000000000000000000000000000020000000000000000000000000000000400000000000000001000000000000000000000000000000000000000000000000000000000000000000000000000000010000000000000000000000000000000000000000000000000000000000000",
      "type": "0x2",
      "transactionHash": "0xb7b98a08e3f32a532bbd516e0eb804334bbc0ce17658590a2d41ae4f3acbf853",
      "transactionIndex": "0x1",
      "blockHash": "0x4c3ff24a7f432b372df0e78a9574c81f55906a62610dc57d32b2dd163462f1b0",
      "blockNumber": "0xac0367a",
      "gasUsed": "0x6a90",
      "effectiveGasPrice": "0x5f5e100",
      "from": "0x9dba18e9b96b905919cc828c399d313efd55d800",
      "to": "0x00571860bb39c639e8aad55b4e95d36be228ae11",
      "contractAddress": null,
      "gasUsedForL1": "0x0",
      "l1BlockNumber": "0x87e80d",
      "timeboosted": false
    },
    {
      "status": "0x1",
      "cumulativeGasUsed": "0x6d02",
      "logs": [
        {
          "address": "0x000000000022d473030f116ddee9f6b43ac78ba3",
          "topics": [
            "0xda9fa7c1b00402c17d0161b249b1ab8bbec047c5a52207b9c112deffd817036b",
            "0x0000000000000000000000009dba18e9b96b905919cc828c399d313efd55d800",
            "0x00000000000000000000000000571860bb39c639e8aad55b4e95d36be228ae11",
            "0x000000000000000000000000ac631556d3d4019c95769033b5e719dd77124bac"
          ],
          "data": "0x000000000000000000000000ffffffffffffffffffffffffffffffffffffffff0000000000000000000000000000000000000000000000000000ffffffffffff",
          "blockHash": "0x33ed83729c10802cb56b8775a58f487c443dbe97a2732541c585af16a6722763",
          "blockNumber": "0xac03688",
          "transactionHash": "0xbe30acddfd44a359273e1cbb6f398843ead0203a92da1df134accec73ea36778",
          "transactionIndex": "0x1",
          "logIndex": "0x0",
          "removed": false
        }
      ],
      "logsBloom": "0x00010000000000000000000000000000000000000000000000000000000000000000000000000000100000000000000000000000000000000000000000080800000000000020000000000000000000000000000000000000000000000000000000000000000000000000000000000000000000000000000000000000000000000020000000000000000000000000000000000000000100000000000000000000000000000000000000000000000000000400000000000000001000080000000000000000000000010000010000000000000000000000000040000000000000000000000000000000000000000000000000000000000000000000000100000400",
      "type": "0x2",
      "transactionHash": "0xbe30acddfd44a359273e1cbb6f398843ead0203a92da1df134accec73ea36778",
      "transactionIndex": "0x1",
      "blockHash": "0x33ed83729c10802cb56b8775a58f487c443dbe97a2732541c585af16a6722763",
      "blockNumber": "0xac03688",
      "gasUsed": "0x6d02",
      "effectiveGasPrice": "0x5f5e100",
      "from": "0x9dba18e9b96b905919cc828c399d313efd55d800",
      "to": "0x000000000022d473030f116ddee9f6b43ac78ba3",
      "contractAddress": null,
      "gasUsedForL1": "0x0",
      "l1BlockNumber": "0x87e80d",
      "timeboosted": false
    },
    {
      "status": "0x1",
      "cumulativeGasUsed": "0x6b37c",
      "logs": [
        {
          "address": "0xfb3e0c6f74eb1a21cc1da29aec80d2dfe6c9a317",
          "topics": [
            "0xdd466e674ea557f56295e2d0218a125ea4b4f0f6f3307b95f85e6110838d6438",
            "0xc97a0183f1f9f86457d28aee333c5373837f7cd5c98364c9a0949bf50231c65e",
            "0x00000000000000000000000000571860bb39c639e8aad55b4e95d36be228ae11",
            "0x0000000000000000000000006d521a93a3b1fef995026ebd537405ebd4a1e481"
          ],
          "data": "0x00000000000000000000000000000000000000000000000000000000000013880000000000000000000000000000000000000000000000000000000000000064000000000000000000000000c9ddfe52a76433c46fd4dac86832ee814cec00c000000000000000000000000000000000000000010000000000000000000000000000000000000000000000000000000000000000000000000000000000000000",
          "blockHash": "0xdd79e1aa7e60f87561b6db61d3012a8216849f786e98203d87d503756fb57495",
          "blockNumber": "0xac0368c",
          "transactionHash": "0x9805f02ceaf4996a2813bcef00ea80f555be9841e94f7dd91aecacbc2bfc5eeb",
          "transactionIndex": "0x1",
          "logIndex": "0x0",
          "removed": false
        },
        {
          "address": "0xac631556d3d4019c95769033b5e719dd77124bac",
          "topics": [
            "0xddf252ad1be2c89b69c2b068fc378daa952ba7f163c4a11628f55a4df523b3ef",
            "0x0000000000000000000000000000000000000000000000000000000000000000",
            "0x0000000000000000000000009dba18e9b96b905919cc828c399d313efd55d800",
            "0x000000000000000000000000000000000000000000000000000000000000003f"
          ],
          "data": "0x",
          "blockHash": "0xdd79e1aa7e60f87561b6db61d3012a8216849f786e98203d87d503756fb57495",
          "blockNumber": "0xac0368c",
          "transactionHash": "0x9805f02ceaf4996a2813bcef00ea80f555be9841e94f7dd91aecacbc2bfc5eeb",
          "transactionIndex": "0x1",
          "logIndex": "0x1",
          "removed": false
        },
        {
          "address": "0xfb3e0c6f74eb1a21cc1da29aec80d2dfe6c9a317",
          "topics": [
            "0xf208f4912782fd25c7f114ca3723a2d5dd6f3bcc3ac8db5af63baa85f711d5ec",
            "0xc97a0183f1f9f86457d28aee333c5373837f7cd5c98364c9a0949bf50231c65e",
            "0x000000000000000000000000ac631556d3d4019c95769033b5e719dd77124bac"
          ],
          "data": "0xfffffffffffffffffffffffffffffffffffffffffffffffffffffffffffedb0800000000000000000000000000000000000000000000000000000000000124f80000000000000000000000000000000000000000000000000e364b50c0bf8e63000000000000000000000000000000000000000000000000000000000000003f",
          "blockHash": "0xdd79e1aa7e60f87561b6db61d3012a8216849f786e98203d87d503756fb57495",
          "blockNumber": "0xac0368c",
          "transactionHash": "0x9805f02ceaf4996a2813bcef00ea80f555be9841e94f7dd91aecacbc2bfc5eeb",
          "transactionIndex": "0x1",
          "logIndex": "0x2",
          "removed": false
        },
        {
          "address": "0x00571860bb39c639e8aad55b4e95d36be228ae11",
          "topics": [
            "0xddf252ad1be2c89b69c2b068fc378daa952ba7f163c4a11628f55a4df523b3ef",
            "0x0000000000000000000000009dba18e9b96b905919cc828c399d313efd55d800",
            "0x000000000000000000000000fb3e0c6f74eb1a21cc1da29aec80d2dfe6c9a317"
          ],
          "data": "0x0000000000000000000000000000000000000000000000000de0b6b3a7640000",
          "blockHash": "0xdd79e1aa7e60f87561b6db61d3012a8216849f786e98203d87d503756fb57495",
          "blockNumber": "0xac0368c",
          "transactionHash": "0x9805f02ceaf4996a2813bcef00ea80f555be9841e94f7dd91aecacbc2bfc5eeb",
          "transactionIndex": "0x1",
          "logIndex": "0x3",
          "removed": false
        },
        {
          "address": "0x6d521a93a3b1fef995026ebd537405ebd4a1e481",
          "topics": [
            "0xddf252ad1be2c89b69c2b068fc378daa952ba7f163c4a11628f55a4df523b3ef",
            "0x0000000000000000000000009dba18e9b96b905919cc828c399d313efd55d800",
            "0x000000000000000000000000fb3e0c6f74eb1a21cc1da29aec80d2dfe6c9a317"
          ],
          "data": "0x0000000000000000000000000000000000000000000000000de0b6b3a7640000",
          "blockHash": "0xdd79e1aa7e60f87561b6db61d3012a8216849f786e98203d87d503756fb57495",
          "blockNumber": "0xac0368c",
          "transactionHash": "0x9805f02ceaf4996a2813bcef00ea80f555be9841e94f7dd91aecacbc2bfc5eeb",
          "transactionIndex": "0x1",
          "logIndex": "0x4",
          "removed": false
        }
      ],
      "logsBloom": "0x000000400000000000000000000000080000000000201000000000000000000000000000000000001002000000000000020000000000000000000000000008c0000000000020004000000008000002000000000000000000020000000000000000000008020404000000000000000800000000000000000000000010000000000002000001000008000000000000000000000001000508000000000000200000000004200000000000000000000000000400000020000000001000000000000000000002000000210000010000000000000000000000000010000000000020000000000000000000400000000000000004000000000000000001000100000004",
      "type": "0x2",
      "transactionHash": "0x9805f02ceaf4996a2813bcef00ea80f555be9841e94f7dd91aecacbc2bfc5eeb",
      "transactionIndex": "0x1",
      "blockHash": "0xdd79e1aa7e60f87561b6db61d3012a8216849f786e98203d87d503756fb57495",
      "blockNumber": "0xac0368c",
      "gasUsed": "0x6b37c",
      "effectiveGasPrice": "0x5f5e100",
      "from": "0x9dba18e9b96b905919cc828c399d313efd55d800",
      "to": "0xac631556d3d4019c95769033b5e719dd77124bac",
      "contractAddress": null,
      "gasUsedForL1": "0x0",
      "l1BlockNumber": "0x87e80d",
      "timeboosted": false
    }
  ],
  "libraries": [],
  "pending": [],
  "returns": {},
  "timestamp": 1754260468,
  "chain": 421614,
  "commit": "9f7af64"
}