{
  "transactions": [
    {
      "hash": null,
      "transactionType": "CALL",
      "contractName": null,
      "contractAddress": "0xa17ee04cff341ab9fc7397c3ff5e262d7eaffb6b",
      "function": "setAuthorizedCaller(address,bool)",
      "arguments": [
        "0x75c4cD5D01368F89E4957e67867275DDEBE740C0",
        "true"
      ],
      "transaction": {
        "from": "0x9dba18e9b96b905919cc828c399d313efd55d800",
        "to": "0xa17ee04cff341ab9fc7397c3ff5e262d7eaffb6b",
        "gas": "0x9566",
        "value": "0x0",
        "input": "0x454bbd2900000000000000000000000075c4cd5d01368f89e4957e67867275ddebe740c00000000000000000000000000000000000000000000000000000000000000001",
        "nonce": "0xfa",
        "chainId": "0x66eee"
      },
      "additionalContracts": [],
      "isFixedGasLimit": false
    }
  ],
  "receipts": [],
  "libraries": [],
  "pending": [],
  "returns": {},
  "timestamp": 1754375050,
  "chain": 421614,
  "commit": "9f7af64"
}