{
  "transactions": [
    {
      "hash": "0xb9dce2143c993dad69761136699c28aec64557b5a1b7b333be50a9fbb05c58e4",
      "transactionType": "CALL",
      "contractName": null,
      "contractAddress": "0xa17ee04cff341ab9fc7397c3ff5e262d7eaffb6b",
      "function": "setAuthorizedCaller(address,bool)",
      "arguments": [
        "0xc9dDfE52a76433c46FD4dAC86832eE814ceC00c0",
        "true"
      ],
      "transaction": {
        "from": "0x9dba18e9b96b905919cc828c399d313efd55d800",
        "to": "0xa17ee04cff341ab9fc7397c3ff5e262d7eaffb6b",
        "gas": "0x94d0",
        "value": "0x0",
        "input": "0x454bbd29000000000000000000000000c9ddfe52a76433c46fd4dac86832ee814cec00c00000000000000000000000000000000000000000000000000000000000000001",
        "nonce": "0xe1",
        "chainId": "0x66eee"
      },
      "additionalContracts": [],
      "isFixedGasLimit": false
    }
  ],
  "receipts": [
    {
      "status": "0x1",
      "cumulativeGasUsed": "0x44920",
      "logs": [],
      "logsBloom": "0x00000000000000000000000000000000000000000000000000000000000000000000000000000000000000000000000000000000000000000000000000000000000000000000000000000000000000000000000000000000000000000000000000000000000000000000000000000000000000000000000000000000000000000000000000000000000000000000000000000000000000000000000000000000000000000000000000000000000000000000000000000000000000000000000000000000000000000000000000000000000000000000000000000000000000000000000000000000000000000000000000000000000000000000000000000000",
      "type": "0x2",
      "transactionHash": "0xb9dce2143c993dad69761136699c28aec64557b5a1b7b333be50a9fbb05c58e4",
      "transactionIndex": "0x4",
      "blockHash": "0x241fc9090e6824dd0f98e8bd07e7edcfc1de0854af9f099678448563f0d08ec4",
      "blockNumber": "0xac03adb",
      "gasUsed": "0x6908",
      "effectiveGasPrice": "0x5f5e100",
      "from": "0x9dba18e9b96b905919cc828c399d313efd55d800",
      "to": "0xa17ee04cff341ab9fc7397c3ff5e262d7eaffb6b",
      "contractAddress": null,
      "gasUsedForL1": "0x0",
      "l1BlockNumber": "0x87e827",
      "timeboosted": false
    }
  ],
  "libraries": [],
  "pending": [],
  "returns": {},
  "timestamp": 1754260754,
  "chain": 421614,
  "commit": "9f7af64"
}