{
  "transactions": [
    {
      "hash": "0x35722179f70805ad44c2f38e8a25ebcf42dab5e0d005b1535dbc30d80ead2430",
      "transactionType": "CALL",
      "contractName": null,
      "contractAddress": "0xa17ee04cff341ab9fc7397c3ff5e262d7eaffb6b",
      "function": "setAuthorizedCaller(address,bool)",
      "arguments": [
        "0x04bc938847fd15E1082bC7F87a23Fc3f32d0c0C0",
        "true"
      ],
      "transaction": {
        "from": "0x9dba18e9b96b905919cc828c399d313efd55d800",
        "to": "0xa17ee04cff341ab9fc7397c3ff5e262d7eaffb6b",
        "gas": "0x94e0",
        "value": "0x0",
        "input": "0x454bbd2900000000000000000000000004bc938847fd15e1082bc7f87a23fc3f32d0c0c00000000000000000000000000000000000000000000000000000000000000001",
        "nonce": "0xc2",
        "chainId": "0x66eee"
      },
      "additionalContracts": [],
      "isFixedGasLimit": false
    }
  ],
  "receipts": [
    {
      "status": "0x1",
      "cumulativeGasUsed": "0x97d5d",
      "logs": [],
      "logsBloom": "0x00000000000000000000000000000000000000000000000000000000000000000000000000000000000000000000000000000000000000000000000000000000000000000000000000000000000000000000000000000000000000000000000000000000000000000000000000000000000000000000000000000000000000000000000000000000000000000000000000000000000000000000000000000000000000000000000000000000000000000000000000000000000000000000000000000000000000000000000000000000000000000000000000000000000000000000000000000000000000000000000000000000000000000000000000000000",
      "type": "0x2",
      "transactionHash": "0x35722179f70805ad44c2f38e8a25ebcf42dab5e0d005b1535dbc30d80ead2430",
      "transactionIndex": "0x5",
      "blockHash": "0xecf5c538f56d242af73a693e1554663da13d8d27dc600ad5ae95e8a1ee7c1448",
      "blockNumber": "0xabbb977",
      "gasUsed": "0x6914",
      "effectiveGasPrice": "0x5f5e100",
      "from": "0x9dba18e9b96b905919cc828c399d313efd55d800",
      "to": "0xa17ee04cff341ab9fc7397c3ff5e262d7eaffb6b",
      "contractAddress": null,
      "gasUsedForL1": "0x0",
      "l1BlockNumber": "0x87cf71",
      "timeboosted": false
    }
  ],
  "libraries": [],
  "pending": [],
  "returns": {},
  "timestamp": 1754184590,
  "chain": 421614,
  "commit": "9f7af64"
}