{
  "transactions": [
    {
      "hash": "0x344fa691574a20b737393c434b5d7882725a95f7f65f68193e99c820dd4a6f61",
      "transactionType": "CALL",
      "contractName": null,
      "contractAddress": "0xa17ee04cff341ab9fc7397c3ff5e262d7eaffb6b",
      "function": "setAuthorizedCaller(address,bool)",
      "arguments": [
        "0x04bc938847fd15E1082bC7F87a23Fc3f32d0c0C0",
        "true"
      ],
      "transaction": {
        "from": "0x9dba18e9b96b905919cc828c399d313efd55d800",
        "to": "0xa17ee04cff341ab9fc7397c3ff5e262d7eaffb6b",
        "gas": "0x94e0",
        "value": "0x0",
        "input": "0x454bbd2900000000000000000000000004bc938847fd15e1082bc7f87a23fc3f32d0c0c00000000000000000000000000000000000000000000000000000000000000001",
        "nonce": "0xc3",
        "chainId": "0x66eee"
      },
      "additionalContracts": [],
      "isFixedGasLimit": false
    }
  ],
  "receipts": [
    {
      "status": "0x1",
      "cumulativeGasUsed": "0x4f6e8",
      "logs": [],
      "logsBloom": "0x00000000000000000000000000000000000000000000000000000000000000000000000000000000000000000000000000000000000000000000000000000000000000000000000000000000000000000000000000000000000000000000000000000000000000000000000000000000000000000000000000000000000000000000000000000000000000000000000000000000000000000000000000000000000000000000000000000000000000000000000000000000000000000000000000000000000000000000000000000000000000000000000000000000000000000000000000000000000000000000000000000000000000000000000000000000",
      "type": "0x2",
      "transactionHash": "0x344fa691574a20b737393c434b5d7882725a95f7f65f68193e99c820dd4a6f61",
      "transactionIndex": "0x2",
      "blockHash": "0xff4fbbd069f95bf817878ace1bdb4e3c5e1be7ca6674180257d015ae6218afec",
      "blockNumber": "0xabd928f",
      "gasUsed": "0x6914",
      "effectiveGasPrice": "0x5f5e100",
      "from": "0x9dba18e9b96b905919cc828c399d313efd55d800",
      "to": "0xa17ee04cff341ab9fc7397c3ff5e262d7eaffb6b",
      "contractAddress": null,
      "gasUsedForL1": "0x0",
      "l1BlockNumber": "0x87d98d",
      "timeboosted": false
    }
  ],
  "libraries": [],
  "pending": [],
  "returns": {},
  "timestamp": 1754215702,
  "chain": 421614,
  "commit": "9f7af64"
}