{
  "transactions": [
    {
      "hash": "0xe8c69ee3f4a640606323c6f6008810c4d5d0fe8bbf57b4fa3b40549872e589e8",
      "transactionType": "CALL",
      "contractName": null,
      "contractAddress": "0xa17ee04cff341ab9fc7397c3ff5e262d7eaffb6b",
      "function": "setAuthorizedCaller(address,bool)",
      "arguments": [
        "0x04bc938847fd15E1082bC7F87a23Fc3f32d0c0C0",
        "true"
      ],
      "transaction": {
        "from": "0x9dba18e9b96b905919cc828c399d313efd55d800",
        "to": "0xa17ee04cff341ab9fc7397c3ff5e262d7eaffb6b",
        "gas": "0x94e0",
        "value": "0x0",
        "input": "0x454bbd2900000000000000000000000004bc938847fd15e1082bc7f87a23fc3f32d0c0c00000000000000000000000000000000000000000000000000000000000000001",
        "nonce": "0xc1",
        "chainId": "0x66eee"
      },
      "additionalContracts": [],
      "isFixedGasLimit": false
    }
  ],
  "receipts": [
    {
      "status": "0x1",
      "cumulativeGasUsed": "0x2e6f1",
      "logs": [],
      "logsBloom": "0x00000000000000000000000000000000000000000000000000000000000000000000000000000000000000000000000000000000000000000000000000000000000000000000000000000000000000000000000000000000000000000000000000000000000000000000000000000000000000000000000000000000000000000000000000000000000000000000000000000000000000000000000000000000000000000000000000000000000000000000000000000000000000000000000000000000000000000000000000000000000000000000000000000000000000000000000000000000000000000000000000000000000000000000000000000000",
      "type": "0x2",
      "transactionHash": "0xe8c69ee3f4a640606323c6f6008810c4d5d0fe8bbf57b4fa3b40549872e589e8",
      "transactionIndex": "0x3",
      "blockHash": "0x6b244e4368ca7477040e160a149f3647d44985e60613487267b1ebcd95cd3a08",
      "blockNumber": "0xabab049",
      "gasUsed": "0x6914",
      "effectiveGasPrice": "0x5f5e100",
      "from": "0x9dba18e9b96b905919cc828c399d313efd55d800",
      "to": "0xa17ee04cff341ab9fc7397c3ff5e262d7eaffb6b",
      "contractAddress": null,
      "gasUsedForL1": "0x0",
      "l1BlockNumber": "0x87c9b5",
      "timeboosted": false
    }
  ],
  "libraries": [],
  "pending": [],
  "returns": {},
  "timestamp": 1754166873,
  "chain": 421614,
  "commit": "9f7af64"
}