{
  "transactions": [
    {
      "hash": "0xb37e42037b068458f2be1d17171c4d1d6ed9235d5918e01a24a868979e41454d",
      "transactionType": "CALL",
      "contractName": null,
      "contractAddress": "0x75faf114eafb1bdbe2f0316df893fd58ce46aa4d",
      "function": "approve(address,uint256)",
      "arguments": [
        "0xA17eE04CFf341ab9FC7397c3FF5E262D7EafFb6b",
        "115792089237316195423570985008687907853269984665640564039457584007913129639935"
      ],
      "transaction": {
        "from": "0x9dba18e9b96b905919cc828c399d313efd55d800",
        "to": "0x75faf114eafb1bdbe2f0316df893fd58ce46aa4d",
        "gas": "0xc5f9",
        "value": "0x0",
        "input": "0x095ea7b3000000000000000000000000a17ee04cff341ab9fc7397c3ff5e262d7eaffb6bffffffffffffffffffffffffffffffffffffffffffffffffffffffffffffffff",
        "nonce": "0xfb",
        "chainId": "0x66eee"
      },
      "additionalContracts": [],
      "isFixedGasLimit": false
    }
  ],
  "receipts": [
    {
      "status": "0x1",
      "cumulativeGasUsed": "0x84fc4",
      "logs": [
        {
          "address": "0x75faf114eafb1bdbe2f0316df893fd58ce46aa4d",
          "topics": [
            "0x8c5be1e5ebec7d5bd14f71427d1e84f3dd0314c0f7b2291e5b200ac8c7c3b925",
            "0x0000000000000000000000009dba18e9b96b905919cc828c399d313efd55d800",
            "0x000000000000000000000000a17ee04cff341ab9fc7397c3ff5e262d7eaffb6b"
          ],
          "data": "0xffffffffffffffffffffffffffffffffffffffffffffffffffffffffffffffff",
          "blockHash": "0x7c998b4bdec1bac3be07a929b9a7da206265a0a1c706ce4ae6fd838ed0dc181c",
          "blockNumber": "0xac7190e",
          "transactionHash": "0xb37e42037b068458f2be1d17171c4d1d6ed9235d5918e01a24a868979e41454d",
          "transactionIndex": "0x6",
          "logIndex": "0xe",
          "removed": false
        }
      ],
      "logsBloom": "0x00000000000000000000000000000000000000000000000000000000000000000000000000000000000000000000000000000000000000000000000000200800800000000000000000000000000000000000000000000000000000000000000000000000000000000000000000000020000000000000000000000000000000000000000000000000000000000000000000000000000000000000000000000000020000000000000000000000000000000400000000040000001000000000000000000000000000000000004000000000000000000000000000000000000000000010000000000000000000000000000000000000000000000100000000000004",
      "type": "0x2",
      "transactionHash": "0xb37e42037b068458f2be1d17171c4d1d6ed9235d5918e01a24a868979e41454d",
      "transactionIndex": "0x6",
      "blockHash": "0x7c998b4bdec1bac3be07a929b9a7da206265a0a1c706ce4ae6fd838ed0dc181c",
      "blockNumber": "0xac7190e",
      "gasUsed": "0x971d",
      "effectiveGasPrice": "0x5f5e100",
      "from": "0x9dba18e9b96b905919cc828c399d313efd55d800",
      "to": "0x75faf114eafb1bdbe2f0316df893fd58ce46aa4d",
      "contractAddress": null,
      "gasUsedForL1": "0x0",
      "l1BlockNumber": "0x880d50",
      "timeboosted": false
    }
  ],
  "libraries": [],
  "pending": [],
  "returns": {},
  "timestamp": 1754375394,
  "chain": 421614,
  "commit": "9f7af64"
}