{
  "transactions": [
    {
      "hash": "0xcc437c228bceb2aa28091eb2fe8cbd1b87e7d3d843172bd0e1fa1e88b985edd1",
      "transactionType": "CALL",
      "contractName": null,
      "contractAddress": "0x00571860bb39c639e8aad55b4e95d36be228ae11",
      "function": "approve(address,uint256)",
      "arguments": [
        "0xCD0b7d5ECd5279D946F99d98633E1942893C3573",
        "115792089237316195423570985008687907853269984665640564039457584007913129639935"
      ],
      "transaction": {
        "from": "0x9dba18e9b96b905919cc828c399d313efd55d800",
        "to": "0x00571860bb39c639e8aad55b4e95d36be228ae11",
        "gas": "0xf1d7",
        "value": "0x0",
        "input": "0x095ea7b3000000000000000000000000cd0b7d5ecd5279d946f99d98633e1942893c3573ffffffffffffffffffffffffffffffffffffffffffffffffffffffffffffffff",
        "nonce": "0xc5",
        "chainId": "0x66eee"
      },
      "additionalContracts": [],
      "isFixedGasLimit": false
    },
    {
      "hash": "0xa8a2c751e71a8e4d80ba21e36a16953969fd27743b80416678215dd0a729f3eb",
      "transactionType": "CALL",
      "contractName": null,
      "contractAddress": "0x6d521a93a3b1fef995026ebd537405ebd4a1e481",
      "function": "approve(address,uint256)",
      "arguments": [
        "0xCD0b7d5ECd5279D946F99d98633E1942893C3573",
        "115792089237316195423570985008687907853269984665640564039457584007913129639935"
      ],
      "transaction": {
        "from": "0x9dba18e9b96b905919cc828c399d313efd55d800",
        "to": "0x6d521a93a3b1fef995026ebd537405ebd4a1e481",
        "gas": "0xf1d9",
        "value": "0x0",
        "input": "0x095ea7b3000000000000000000000000cd0b7d5ecd5279d946f99d98633e1942893c3573ffffffffffffffffffffffffffffffffffffffffffffffffffffffffffffffff",
        "nonce": "0xc6",
        "chainId": "0x66eee"
      },
      "additionalContracts": [],
      "isFixedGasLimit": false
    },
    {
      "hash": "0x6ba5a7baeb159a7f321dba2df603d611e8fe069bdbba99d7f876d3516cf054e2",
      "transactionType": "CALL",
      "contractName": null,
      "contractAddress": "0xcd0b7d5ecd5279d946f99d98633e1942893c3573",
      "function": "swapExactTokensForTokens(uint256,uint256,bool,(address,address,uint24,int24,address),bytes,address,uint256)",
      "arguments": [
        "10000000000000000",
        "0",
        "false",
        "(0x00571860bB39C639e8aAD55B4E95D36BE228ae11, 0x6d521a93A3B1fEF995026eBD537405EBD4A1E481, 5000, 100, 0x04bc938847fd15E1082bC7F87a23Fc3f32d0c0C0)",
        "0x0000000000000000000000000000000000000000000000000000000000000000",
        "0x9dBa18e9b96b905919cC828C399d313EfD55D800",
        "1754226160"
      ],
      "transaction": {
        "from": "0x9dba18e9b96b905919cc828c399d313efd55d800",
        "to": "0xcd0b7d5ecd5279d946f99d98633e1942893c3573",
        "gas": "0x2cdb7",
        "value": "0x0",
        "input": "0xb1a0d571000000000000000000000000000000000000000000000000002386f26fc100000000000000000000000000000000000000000000000000000000000000000000000000000000000000000000000000000000000000000000000000000000000000000000000000000000000000571860bb39c639e8aad55b4e95d36be228ae110000000000000000000000006d521a93a3b1fef995026ebd537405ebd4a1e4810000000000000000000000000000000000000000000000000000000000001388000000000000000000000000000000000000000000000000000000000000006400000000000000000000000004bc938847fd15e1082bc7f87a23fc3f32d0c0c000000000000000000000000000000000000000000000000000000000000001600000000000000000000000009dba18e9b96b905919cc828c399d313efd55d80000000000000000000000000000000000000000000000000000000000688f5df000000000000000000000000000000000000000000000000000000000000000200000000000000000000000000000000000000000000000000000000000000000",
        "nonce": "0xc7",
        "chainId": "0x66eee"
      },
      "additionalContracts": [],
      "isFixedGasLimit": false
    }
  ],
  "receipts": [
    {
      "status": "0x1",
      "cumulativeGasUsed": "0xb888",
      "logs": [
        {
          "address": "0x00571860bb39c639e8aad55b4e95d36be228ae11",
          "topics": [
            "0x8c5be1e5ebec7d5bd14f71427d1e84f3dd0314c0f7b2291e5b200ac8c7c3b925",
            "0x0000000000000000000000009dba18e9b96b905919cc828c399d313efd55d800",
            "0x000000000000000000000000cd0b7d5ecd5279d946f99d98633e1942893c3573"
          ],
          "data": "0xffffffffffffffffffffffffffffffffffffffffffffffffffffffffffffffff",
          "blockHash": "0xf208e863c75a972fab0b78dab321e0c7e911e48d7bccdb440e2ec902b42e5bc3",
          "blockNumber": "0xabdfacc",
          "transactionHash": "0xcc437c228bceb2aa28091eb2fe8cbd1b87e7d3d843172bd0e1fa1e88b985edd1",
          "transactionIndex": "0x1",
          "logIndex": "0x0",
          "removed": false
        }
      ],
      "logsBloom": "0x00000000000000000000000000000000000000000000000000000000000000000000000000000000000000000000010000000000000000000000000000200800000000000000000000000000000000000000000000000000020000000000000000000000000004000000000000000000000000000000000000000000000000000002000000000000000000000000000000000000000000000000000000000000020000000000000000000000000000000400000000000000001000000000000000000000000000000000000000000000000000000000000000000000008000000010000000000000000000000080000000000000000000000000000000000000",
      "type": "0x2",
      "transactionHash": "0xcc437c228bceb2aa28091eb2fe8cbd1b87e7d3d843172bd0e1fa1e88b985edd1",
      "transactionIndex": "0x1",
      "blockHash": "0xf208e863c75a972fab0b78dab321e0c7e911e48d7bccdb440e2ec902b42e5bc3",
      "blockNumber": "0xabdfacc",
      "gasUsed": "0xb888",
      "effectiveGasPrice": "0x5f5e100",
      "from": "0x9dba18e9b96b905919cc828c399d313efd55d800",
      "to": "0x00571860bb39c639e8aad55b4e95d36be228ae11",
      "contractAddress": null,
      "gasUsedForL1": "0x0",
      "l1BlockNumber": "0x87dbc7",
      "timeboosted": false
    },
    {
      "status": "0x1",
      "cumulativeGasUsed": "0x8c795",
      "logs": [
        {
          "address": "0x6d521a93a3b1fef995026ebd537405ebd4a1e481",
          "topics": [
            "0x8c5be1e5ebec7d5bd14f71427d1e84f3dd0314c0f7b2291e5b200ac8c7c3b925",
            "0x0000000000000000000000009dba18e9b96b905919cc828c399d313efd55d800",
            "0x000000000000000000000000cd0b7d5ecd5279d946f99d98633e1942893c3573"
          ],
          "data": "0xffffffffffffffffffffffffffffffffffffffffffffffffffffffffffffffff",
          "blockHash": "0x1b1dee8cd0ec4a15177d176ab85841c70c5d18ebb5104d016aed9cb6c2f54082",
          "blockNumber": "0xabdfad3",
          "transactionHash": "0xa8a2c751e71a8e4d80ba21e36a16953969fd27743b80416678215dd0a729f3eb",
          "transactionIndex": "0x4",
          "logIndex": "0x3",
          "removed": false
        }
      ],
      "logsBloom": "0x00000000000000000000000000000000000000000000000000000000000000000000000000000000000000000000010000000000000000000000000000200800000000000000000000000000000000000000000000000000000000000000000000000000000000000000000000000000000000000000000000000000000000000000000000000000000000000000000000000000000408000000000000000000020000000000000000000000000000000400000020000000001000000000000000000000000000000000000000000000000000000000000000000000008000000010000000000000000000000080000000000000000000000000000000000000",
      "type": "0x2",
      "transactionHash": "0xa8a2c751e71a8e4d80ba21e36a16953969fd27743b80416678215dd0a729f3eb",
      "transactionIndex": "0x4",
      "blockHash": "0x1b1dee8cd0ec4a15177d176ab85841c70c5d18ebb5104d016aed9cb6c2f54082",
      "blockNumber": "0xabdfad3",
      "gasUsed": "0xb88a",
      "effectiveGasPrice": "0x5f5e100",
      "from": "0x9dba18e9b96b905919cc828c399d313efd55d800",
      "to": "0x6d521a93a3b1fef995026ebd537405ebd4a1e481",
      "contractAddress": null,
      "gasUsedForL1": "0x0",
      "l1BlockNumber": "0x87dbc7",
      "timeboosted": false
    },
    {
      "status": "0x1",
      "cumulativeGasUsed": "0x3c4ff",
      "logs": [
        {
          "address": "0xfb3e0c6f74eb1a21cc1da29aec80d2dfe6c9a317",
          "topics": [
            "0x40e9cecb9f5f1f1c5b9c97dec2917b7ee92e57ba5563708daca94dd84ad7112f",
            "0x2ffde48cf6c269ca8b78a17350999892a94c3418f3c539b564a8f31bcab7da07",
            "0x000000000000000000000000cd0b7d5ecd5279d946f99d98633e1942893c3573"
          ],
          "data": "0x00000000000000000000000000000000000000000000000000230264e1b7d647ffffffffffffffffffffffffffffffffffffffffffffffffffdc790d903f00000000000000000000000000000000000000000001027cbeab0d2453b4e45ba3120000000000000000000000000000000000000000000000000e364b50c0bf8e6300000000000000000000000000000000000000000000000000000000000000c10000000000000000000000000000000000000000000000000000000000001388",
          "blockHash": "0x46e0749155ccd71a2b527dffbe03b6fdb62543eb299cf762e3df1d5aadd4c379",
          "blockNumber": "0xabdfadb",
          "transactionHash": "0x6ba5a7baeb159a7f321dba2df603d611e8fe069bdbba99d7f876d3516cf054e2",
          "transactionIndex": "0x2",
          "logIndex": "0x3",
          "removed": false
        },
        {
          "address": "0x6d521a93a3b1fef995026ebd537405ebd4a1e481",
          "topics": [
            "0xddf252ad1be2c89b69c2b068fc378daa952ba7f163c4a11628f55a4df523b3ef",
            "0x0000000000000000000000009dba18e9b96b905919cc828c399d313efd55d800",
            "0x000000000000000000000000fb3e0c6f74eb1a21cc1da29aec80d2dfe6c9a317"
          ],
          "data": "0x000000000000000000000000000000000000000000000000002386f26fc10000",
          "blockHash": "0x46e0749155ccd71a2b527dffbe03b6fdb62543eb299cf762e3df1d5aadd4c379",
          "blockNumber": "0xabdfadb",
          "transactionHash": "0x6ba5a7baeb159a7f321dba2df603d611e8fe069bdbba99d7f876d3516cf054e2",
          "transactionIndex": "0x2",
          "logIndex": "0x4",
          "removed": false
        },
        {
          "address": "0x00571860bb39c639e8aad55b4e95d36be228ae11",
          "topics": [
            "0xddf252ad1be2c89b69c2b068fc378daa952ba7f163c4a11628f55a4df523b3ef",
            "0x000000000000000000000000fb3e0c6f74eb1a21cc1da29aec80d2dfe6c9a317",
            "0x0000000000000000000000009dba18e9b96b905919cc828c399d313efd55d800"
          ],
          "data": "0x00000000000000000000000000000000000000000000000000230264e1b7d647",
          "blockHash": "0x46e0749155ccd71a2b527dffbe03b6fdb62543eb299cf762e3df1d5aadd4c379",
          "blockNumber": "0xabdfadb",
          "transactionHash": "0x6ba5a7baeb159a7f321dba2df603d611e8fe069bdbba99d7f876d3516cf054e2",
          "transactionIndex": "0x2",
          "logIndex": "0x5",
          "removed": false
        }
      ],
      "logsBloom": "0x00000040000000000000000000000008000000000020000000000000000000000000000000000000000000000000010000000000040000000000000000000840000000000000000000000008000000000000000000000020020000000000000000000000000404000000000000000000000000000000000000000010000000000002000000000000000000000000000020000000000408000000000000000000000000000000000000000000000000000400000020000000001000000000000000000002000000000000000000000000000000000000000000000000008000000000000002000000004000000080000000000000000080000000000000000004",
      "type": "0x2",
      "transactionHash": "0x6ba5a7baeb159a7f321dba2df603d611e8fe069bdbba99d7f876d3516cf054e2",
      "transactionIndex": "0x2",
      "blockHash": "0x46e0749155ccd71a2b527dffbe03b6fdb62543eb299cf762e3df1d5aadd4c379",
      "blockNumber": "0xabdfadb",
      "gasUsed": "0x2079e",
      "effectiveGasPrice": "0x5f5e100",
      "from": "0x9dba18e9b96b905919cc828c399d313efd55d800",
      "to": "0xcd0b7d5ecd5279d946f99d98633e1942893c3573",
      "contractAddress": null,
      "gasUsedForL1": "0x0",
      "l1BlockNumber": "0x87dbc9",
      "timeboosted": false
    }
  ],
  "libraries": [],
  "pending": [],
  "returns": {},
  "timestamp": 1754222584,
  "chain": 421614,
  "commit": "9f7af64"
}